:100000000C949A0B0C94B70B0C94B70B0C94B70B85
:100010000C94BC0C0C94B70B0C94B70B0C94B70B52
:100020000C94B70B0C94B70B0C94B70B0C94B70B48
:100030000C94B70B0C94B70B0C94B70B0C94B70B38
:100040000C94E60C0C94B70B0C94371F0C945C1FAB
:100050000C94B70B0C94B70B0C94B70B0C94B70B18
:100060000C94B70B0C94B70B46616E20322073745E
:10007000616C6C2E2052657374617274696E672EA8
:100080002E2E0D0A0046616E2031207374616C6C57
:100090002E2052657374617274696E672E2E2E0D58
:1000A0000A0050574D2044757479202E2E2E2E2E86
:1000B0002E2E2E2E2E2E2E2E2E2E2E2E2E2E2E2E60
:1000C0002E3A20256425250D0A0025750D0A0025E8
:1000D0007346616E2025632052504D20202E2E2E17
:1000E0002E2E2E2E2E2E2E2E2E2E2E2E2E2E2E2E30
:1000F0002E3A2000257354656D7020256320284317
:1001000029205B25735D2025732E2E3A202573252B
:10011000752E25750D0A004661696C656420746F43
:1001200020726561642073656E736F7220322E20B9
:1001300053657474696E6720746F206D61780D0A61
:10014000004661696C656420746F2072656164208B
:1001500073656E736F7220312E2053657474696EEF
:100160006720746F206D61780D0A000D0A43747268
:100170006C2B442072656365697665642E20526538
:1001800073657474696E672E2E2E0D0A00507265A9
:100190007373204374726C2B4420617420616E79F8
:1001A0002074696D6520746F2072657365740D0A23
:1001B000004E6F2073656E736F727320666F756E7D
:1001C000642E2046616E732077696C6C2062652016
:1001D00073657420746F206D61780D0A000D0A48F4
:1001E00061726477617265206572726F72207365E7
:1001F00061726368696E6720666F722073656E73E3
:100200006F72730D0A000D0A466F756E64202575B6
:10021000206F66202575206D6178696D756D20737E
:10022000656E736F72730D0A000D0A4D616E756114
:100230006C6C792061737369676E65642025752025
:100240006F66202575206D6178696D756D20736509
:100250006E736F72730D0A000D0A0D0A002028508C
:10026000617274206D61792062656C6F6E672074B5
:100270006F20612046616D696C79206E6F74207308
:1002800065656E20696E20323031392E29002028B4
:10029000436F756C64206E6F74206964656E746959
:1002A00066792046616D696C792E29002028457297
:1002B000726F722072656164696E67207363726128
:1002C0007463687061642072656769737465722015
:1002D0005B435D2E29002046616D696C79204320C7
:1002E00028436C6F6E65292E00292E002046616D13
:1002F000696C7920442028436C6F6E65292C207529
:100300006E6B6E6F776E20737562747970652028DE
:10031000307838423D002046616D696C7920443266
:100320002028436C6F6E6520772F6F20706172619B
:10033000736974696320706F776572292E00204697
:10034000616D696C792044312028436C6F6E65299A
:100350002E002046616D696C792044312028436C61
:100360006F6E6520772F6F20706172617369746999
:100370006320706F776572292E00292E0020466158
:100380006D696C7920422028436C6F6E65292C20A2
:10039000756E6B6E6F776E20737562747970652001
:1003A00028307839373D002046616D696C792042EC
:1003B000322028436C6F6E65292E002046616D69DE
:1003C0006C792042312028436C6F6E65292E0029FC
:1003D0002E002C20307836383D002046616D696C47
:1003E0007920412C20756E6B6E6F776E207375626D
:1003F000747970652028307839333D0020284572A3
:10040000726F722072656164696E672073637261D6
:1004100074636870616420726567697374657220C3
:100420005B415D2E29002046616D696C7920413267
:100430002028436C6F6E65292E002046616D696C23
:1004400079204131202847656E756965204D6178B6
:10045000696D292E003A00202843524320457272CC
:100460006F72290025303258002530325800202084
:10047000546865206E756D626572206F66206465D4
:1004800076696174696F6E7320697320756E657823
:100490007065637465646C7920736D616C6C2E0D8E
:1004A0000A00206170706561727320746F2062654C
:1004B00020636F756E74657266656974206261731E
:1004C0006564206F6E2025752064657669617469A6
:1004D0006F6E732E0D0A0020726573706F6E646507
:1004E00064206C696B6520612067656E75696520A5
:1004F0004D6178696D2E0D0A0053656E736F720041
:100500004453313853323020636F756E74657266B0
:100510006569742074657374206E6F7420636F6DE9
:10052000706C657465642C206F746865727769738C
:10053000652073656E736F720020202D2D3E2000A4
:100540006E6F74206E65636573736172792E2053CC
:100550006B69707065642E0D0A002E204572726FF3
:10056000722E0D0A0020627574206279746520363F
:10057000203D203078002054656D7065726174757F
:100580007265204C5342203D20307800206F6B2E46
:100590000D0A0020496E636F6E636C757369766532
:1005A0002E20506C65617365206368616E676520FD
:1005B00073656E736F722074656D706572617475AA
:1005C000726520616E64207265706561742E0D0A1B
:1005D000002020436865636B696E672062797465EB
:1005E00020362075706F6E2074656D706572617451
:1005F000757265206368616E67653A2000206F6BD5
:100600002E0D0A002E204572726F722E0D0A0020E8
:100610006E6F2C20676F743A2000202030783445AC
:10062000207072657365727665732072657365728A
:100630007665642062797465733A2000206F6B2EB2
:100640000D0A00292E204572726F722E0D0A0020AD
:1006500072656A6563746564202865787065637483
:1006600065643A20307837462C20676F743A200052
:1006700020203078344520616363657074732031C5
:100680003220626974207265736F6C7574696F6E65
:100690003A2000206F6B2E0D0A002E204572726FDB
:1006A000722E0D0A00206E6F2C20676F743A2000A6
:1006B00020203078344520707265736572766573DA
:1006C0002072657365727665642062797465733A29
:1006D0002000206F6B2E0D0A00292E204572726FAC
:1006E000722E0D0A002072656A65637465642028A5
:1006F00077616E743A20307833462C20676F743AF5
:100700002000202030783445206163636570747365
:1007100020313020626974207265736F6C75746962
:100720006F6E3A2000206F6B2E0D0A00292E204597
:1007300072726F722E0D0A002C20676F743A2000BF
:100740002063616E6E6F74206D6F646966792063DB
:100750006F6E74656E742061732065787065637464
:100760006564202877616E743A2000202030783448
:1007700045206D6F64696669657320616C61726D97
:10078000207265676973746572733A2000206F6B1D
:100790002E0D0A002073686F756C642068617665A1
:1007A000206265656E2030783130206163636F723E
:1007B00064696E6720746F20646174617368656535
:1007C000742E204572726F722E0D0A00293A200095
:1007D000202053637261746368706164206279746D
:1007E0006520372028307800206F6B2E0D0A0020FE
:1007F000756E65787065637465642076616C756587
:100800002E204572726F722E0D0A00293A200020A8
:1008100020536372617463687061642062797465E7
:1008200020362028307800206F6B2E0D0A002073B0
:10083000686F756C642068617665206265656E20FE
:1008400030784646206163636F7264696E67207416
:100850006F206461746173686565742E20457272DF
:100860006F722E0D0A00293A200020205363726116
:100870007463687061642062797465203520283063
:100880007800204D6178696D2064656661756C74CF
:100890002076616C7565732E0D0A00206E6F7420D2
:1008A0004D6178696D2064656661756C7420766150
:1008B0006C7565732034422F34362F37462E0D0A5F
:1008C00000293A20002020496E666F206F6E6C79F7
:1008D0003A20536372617463687061642062797452
:1008E000657320322C332C342028000D0A00202080
:1008F000435243204572726F722E20436865636BCA
:1009000020636F6E6E656374696F6E73206F722003
:100910007265706C6163652073656E736F722E0D06
:100920000A0020205363726174636870616420520E
:10093000656769737465723A20000D0A003A2052A7
:100940004F4D206F6B2E003A20524F4D20646F6543
:1009500073206E6F7420666F6C6C6F772065787093
:100960006563746564207061747465726E203238DA
:100970003A58583A58583A58583A58583A30303AFB
:1009800030303A4352432E204572726F722E00204F
:1009900028435243204572726F72202D3E204572CB
:1009A000726F722E29000D0A4E6F20636F6E66699A
:1009B0006775726174696F6E20666F756E642E2044
:1009C00053657474696E672064656661756C7473D1
:1009D0000D0A000D0A436F6D6D616E64733A0D0A66
:1009E0000D0A0973686F770D0A090953686F77203C
:1009F00063757272656E7420636F6E666967757277
:100A00006174696F6E0D0A0D0A0964656661756C23
:100A1000740D0A09094C6F6164207468652064656F
:100A20006661756C7420636F6E6669677572617458
:100A3000696F6E0D0A0D0A09736176650D0A090961
:100A4000536176652063757272656E7420636F6E94
:100A500066696775726174696F6E0D0A0D0A0965C2
:100A60007869740D0A090945786974207468697396
:100A7000206D656E7520616E642073746172740DF3
:100A80000A0D0A0966616E316D6178205B30207451
:100A90006F203130305D0D0A0966616E326D61780C
:100AA000205B3020746F203130305D0D0A0909530E
:100AB00065747320746865206D6178696D756D204B
:100AC00064757479206379636C6520666F72206643
:100AD000616E0D0A0D0A0966616E316D696E205BEB
:100AE0003020746F203130305D0D0A0966616E323E
:100AF0006D696E205B3020746F203130305D0D0ADF
:100B000009095365747320746865206D696E696D99
:100B1000756D2064757479206379636C6520666FE8
:100B2000722066616E0D0A0D0A0966616E3173747A
:100B3000617274205B3020746F203130305D0D0A9B
:100B40000966616E327374617274205B3020746F59
:100B5000203130305D0D0A090953657473207468C3
:100B6000652064757479206379636C6520746F20E7
:100B7000757365206265747765656E20726573654F
:100B80007420616E642066697273742063616C63A3
:100B9000756C6174696F6E0D0A0909616E64207766
:100BA00068656E20696E2074686520636F6E666983
:100BB0006775726174696F6E2070726F6D70740DFD
:100BC0000A0D0A0966616E316D696E72706D205B87
:100BD0003020746F2036353533355D0D0A09666176
:100BE0006E326D696E72706D205B3020746F2036CE
:100BF000353533355D0D0A09095365747320746802
:100C000065207374616C6C2D7265737461727420ED
:100C10007468726573686F6C642052504D20666F03
:100C2000722066616E0D0A0D0A0966616E316D698A
:100C30006E6F6666205B30206F7220315D0D0A0991
:100C400066616E326D696E6F6666205B30206F7212
:100C500020315D0D0A090953657420746F20273116
:100C60002720746F20706F776572206F666620662C
:100C7000616E2062656C6F77206D696E696D756D50
:100C80002074656D700D0A0D0A09095374616C6C4E
:100C900020636865636B696E67206973206E6F748B
:100CA00020706572666F726D6564207768656E206E
:100CB00073657420746F202731270D0A0D0A09749B
:100CC000656D70316D6178205B2D35352E30207467
:100CD0006F203132352E305D0D0A0909536574736A
:100CE000207468652074656D7065726174757265D5
:100CF0002061742077686963682066616E2069737B
:100D00002073657420746F20746865206D61786944
:100D10006D756D0D0A0909636F6E66696775726599
:100D2000642064757479206379636C650D0A0D0A1B
:100D30000974656D70316D696E205B2D35352E300F
:100D400020746F203132352E305D0D0A090953654C
:100D50007473207468652074656D70657261747554
:100D60007265207468726573686F6C6420617420AA
:100D700077686963682066616E207374617274734A
:100D800020746F0D0A0909696E63726561736520CD
:100D900066726F6D20746865206D696E696D756D22
:100DA00020636F6E66696775726564206475747917
:100DB000206379636C650D0A0D0A0974656D7031E5
:100DC00068797374205B3020746F203138302E3096
:100DD0005D0D0A090953657473206879737465722F
:100DE00065736973207768656E207573696E672017
:100DF000276D696E6F6666272E20546865206661D0
:100E00006E2077696C6C206E6F74207377697463E1
:100E100068206F66660D0A0909756E74696C206337
:100E2000757272656E742074656D70206973206CC4
:100E3000657373207468616E2074656D70316D69BF
:100E40006E2C206D696E75732074656D70316879D4
:100E500073740D0A0D0A0974656D70326D61782026
:100E60005B2D35352E3020746F203132352E305DBC
:100E70000D0A0974656D70326D696E205B2D353514
:100E80002E3020746F203132352E305D0D0A0974FA
:100E9000656D703268797374205B3020746F203117
:100EA00038302E305D0D0A0909436F6E666967752B
:100EB000726174696F6E20666F722073656E736FF6
:100EC0007220322077696C6C206170706C792074AC
:100ED0006F2066616E203220696620697420697314
:100EE0000D0A0909636F6E6E65637465642E204F89
:100EF00074686572776973652066616E203220754B
:100F00007365732073656E736F7220312077697417
:100F1000682074656D70326D61782F6D696E2F6811
:100F20007973740D0A0D0A0966616E32656E61622D
:100F30006C6564205B30206F7220315D0D0A0909F9
:100F400053657420746F20273127206966206661FD
:100F50006E203220697320636F6E6E656374656402
:100F60000D0A0D0A0974656D703164657363205B49
:100F7000646573635D0D0A0974656D703264657331
:100F800063205B646573635D0D0A090953657473BF
:100F9000206465736372697074696F6E73202831A1
:100FA00035206368617273206D6178290D0A0D0A1E
:100FB000097265616474656D700D0A090950726F7C
:100FC000626520616E642072656164206F757420B3
:100FD000616C6C2061747461636865642073656E14
:100FE000736F72730D0A0D0A096175746863686521
:100FF000636B0D0A0909436865636B20617574684A
:10100000656E746963697479206F662061747461B8
:101010006368656420445331384232302073656E12
:10102000736F72730D0A0D0A096D616E75616C61E3
:10103000737369676E6D656E74205B30206F72200C
:10104000315D0D0A090953657420746F202731271B
:1010500020746F20656E61626C65206D616E7561D4
:101060006C2061737369676E6D656E74206F6620A6
:1010700073656E736F7220616464726573732D742F
:101080006F2D696E6465780D0A0D0A0973656E73BC
:101090006F723161646472205B61646472206F728C
:1010A00020276E6F6E65275D0D0A0973656E736F7D
:1010B000723261646472205B61646472206F7220BA
:1010C000276E6F6E65275D0D0A09095365747320DD
:1010D000616464726573736573206F662073656EF7
:1010E000736F72730D0A0D0A000D0A000D0A437525
:1010F0007272656E7420636F6E6669677572617473
:10110000696F6E3A0D0A0D0A0966616E316D61787C
:10111000202E2E2E2E2E2E2E2E2E2E2E3A202575C1
:101120000D0A0966616E316D696E202E2E2E2E2EEF
:101130002E2E2E2E2E2E3A2025750D0A0966616E52
:10114000317374617274202E2E2E2E2E2E2E2E2E82
:101150003A2025750D0A0966616E316D696E7270EF
:101160006D202E2E2E2E2E2E2E2E3A2025750D0A77
:101170000966616E316D696E6F6666202E2E2E2EA9
:101180002E2E2E2E3A2025750D0A0D0A0966616E47
:1011900032656E61626C6564202E2E2E2E2E2E2EF0
:1011A0003A2025750D0A0966616E326D6178202E30
:1011B0002E2E2E2E2E2E2E2E2E2E3A2025750D0A58
:1011C0000966616E326D696E202E2E2E2E2E2E2E09
:1011D0002E2E2E2E3A2025750D0A0966616E327369
:1011E00074617274202E2E2E2E2E2E2E2E2E3A202C
:1011F00025750D0A0966616E326D696E72706D201B
:101200002E2E2E2E2E2E2E2E3A2025750D0A0966F4
:10121000616E326D696E6F6666202E2E2E2E2E2E1A
:101220002E2E3A2025750D0A0D0A0974656D703150
:101230006D6178202E2E2E2E2E2E2E2E2E2E3A2022
:10124000257325752E25750D0A0974656D70316D30
:10125000696E202E2E2E2E2E2E2E2E2E2E3A20254C
:101260007325752E25750D0A0974656D70316879C1
:101270007374202E2E2E2E2E2E2E2E2E3A202575D5
:101280002E25750D0A0974656D70316465736320D0
:101290002E2E2E2E2E2E2E2E2E3A2025730D0A0D9A
:1012A0000A0974656D70326D6178202E2E2E2E2EF7
:1012B0002E2E2E2E2E3A20257325752E25750D0ADD
:1012C0000974656D70326D696E202E2E2E2E2E2EB5
:1012D0002E2E2E2E3A20257325752E25750D0A09E2
:1012E00074656D703268797374202E2E2E2E2E2E1A
:1012F0002E2E2E3A2025752E25750D0A0974656D42
:10130000703264657363202E2E2E2E2E2E2E2E2EDE
:101310003A2025730D0A0D0A096D616E75616C61C5
:10132000737369676E6D656E74202E2E3A20257575
:101330000D0A0973656E736F723161646472202ED9
:101340002E2E2E2E2E2E3A20253032583A2530328F
:10135000583A253032583A253032583A25303258EA
:101360003A253032583A253032583A253032580D25
:101370000A0973656E736F723261646472202E2E77
:101380002E2E2E2E2E3A20253032583A2530325825
:101390003A253032583A253032583A253032583AC8
:1013A000253032583A253032583A253032580D0A15
:1013B000000D0A005365652068747470733A2F2F0E
:1013C0006769746875622E636F6D2F6370657472E0
:1013D0006963682F636F756E746572666569745FA3
:1013E0004453313842323020666F72206D6F72651F
:1013F00020696E666F726D6174696F6E2E0D0A00E2
:101400000D0A4861726477617265206572726F724D
:1014100020736561726368696E6720666F722073FE
:10142000656E736F72730D0A000D0A466F756E64F8
:10143000202575206F66202575206D6178696D7592
:101440006D2073656E736F72730D0A0D0A000D0ABD
:10145000004661696C656420746F20726561642068
:1014600073656E736F722025750D0A000D0A536542
:101470006E736F722025753A0D0A0954656D7020E0
:10148000284329202E2E2E2E2E2E2E2E2E2E2E2E80
:101490002E3A20257325752E25750D0A0942757281
:1014A0006E656420696E204944202E2E2E2E2E2E2D
:1014B0002E2E2E3A20253032583A253032583A25F1
:1014C0003032583A253032583A253032583A2530A1
:1014D00032583A253032583A253032580D0A000D2C
:1014E0000A4861726477617265206572726F72205A
:1014F000736561726368696E6720666F72207365D9
:101500006E736F72730D0A000D0A466F756E64205C
:101510002575206F66202575206D6178696D756D64
:101520002073656E736F72730D0A006E6F6E6500C7
:101530004572726F723A204D697373696E672070DD
:101540006172616D657465720D0A004572726F7229
:101550003A206E6F207375636820636F6D6D616EE6
:101560006420282573290D0A003F0068656C70000F
:1015700073686F770061757468636865636B007288
:1015800065616474656D70000D0A537461727469ED
:101590006E672E2E2E0D0A0065786974000D0A44C0
:1015A000656661756C7420636F6E666967757261DC
:1015B00074696F6E206C6F616465642E0D0A0D0A8C
:1015C0000064656661756C74000D0A436F6E666930
:1015D0006775726174696F6E2073617665642E0D34
:1015E0000A0D0A00736176650073656E736F72325F
:1015F000616464720073656E736F723161646472EA
:10160000006D616E75616C61737369676E6D656E97
:10161000740074656D7032646573630074656D7019
:1016200031646573630066616E326D696E6F666604
:101630000066616E316D696E6F66660066616E325E
:10164000656E61626C65640074656D703268797393
:10165000740074656D70326D696E0074656D703202
:101660006D61780074656D703168797374007465AC
:101670006D70316D696E0074656D70316D617800EB
:1016800066616E326D696E72706D0066616E327386
:10169000746172740066616E326D696E0066616EAF
:1016A000326D61780066616E316D696E72706D00C9
:1016B00066616E3173746172740066616E316D695A
:1016C0006E0066616E316D61780025635B25644450
:1016D00025635B4B002573002573000D0A004572DE
:1016E000726F723A20636F6D6D616E64206661691E
:1016F0006C65640D0A000D0A00636F6E6669673ED3
:10170000000D0A003C5072657373204374726C2B99
:101710004320746F20656E74657220636F6E666916
:101720006775726174696F6E2070726F6D70743E50
:101730000D0A000011241FBECFEFD8E0DEBFCDBFE1
:1017400011E0A0E0B1E0ECEFF0E502C005900D92F1
:10175000A831B107D9F723E0A8E1B1E001C01D929B
:10176000A83EB207E1F70E9488200C947C280C94D4
:1017700000004F925F926F927F928F929F92AF92F2
:10178000BF92CF92EF92FF920F931F93CF93DF936D
:10179000EC012901D801370145015901A01AB10A0C
:1017A000262F30E0042F10E07901E01AF10ACC2056
:1017B00099F0CD0186199709C817D90728F481E057
:1017C000F401808380E02FC0F4018081882321F020
:1017D000CA17DB07BCF31082CD01AC17BD070CF4B0
:1017E000CE01F201841595050CF4FC01EA1BFB0BFC
:1017F00044E64E9FC0014F9F900D1124B5010E94F9
:1018000041236E9DC0016F9D900D7E9D900D112412
:1018100064E670E00E944123060F171FC9010217FA
:1018200013070CF4C801DF91CF911F910F91FF9026
:10183000EF90CF90BF90AF909F908F907F906F90E0
:101840005F904F900895CF93DF93EB018F5C20E181
:1018500031E0442311F02EE031E01F928F933F934B
:101860002F938FEC90E09F938F930E944925DF93F5
:10187000CF938AEC90E09F938F930E9449258DB778
:101880009EB70A960FB6F8949EBF0FBE8DBFDF912C
:10189000CF9108958F929F92AF92BF92CF92DF9295
:1018A000EF92FF920F931F93CF93DF9300D0CDB7AA
:1018B000DEB7F82ECB01E42ED52EC22E1A8277FF8A
:1018C00059C02DE2298397FF03C091958195910915
:1018D0006AE070E00E944123B62EA72E982E892E32
:1018E000EE2DFD2DDF010D900020E9F7EA1BE05FF2
:1018F0000E2F10E0A8016EE270E086E891E00E94F1
:10190000EA24F801EA57FE4F108281E38F0D20E1AF
:1019100031E0CC2011F02EE031E08F929F92AF9217
:10192000BF92AE014F5F5F4F5F934F9346E851E028
:101930005F934F93DF92EF921F928F933F932F937A
:1019400084EF90E09F938F930E9449250FB6F894FF
:10195000DEBF0FBECDBF0F900F90DF91CF911F91D3
:101960000F91FF90EF90DF90CF90BF90AF909F903E
:101970008F9008951982A7CF2F932FB72F938F930E
:101980009F9320912A0122FD0BC0329B09C08091B8
:101990002B0190912C01019690932C0180932B01A7
:1019A00023FD0BC0339B09C080912D0190912E0126
:1019B000019690932E0180932D0186B180932A0188
:1019C0009F918F912F912FBF2F9118951F920F925A
:1019D0000FB60F9211242F933F934F935F936F9302
:1019E0007F938F939F93AF93BF93EF93FF938091D8
:1019F00029018F5F80932901883C29F540912B01B3
:101A000050912C018EE1849F9001859F300D11240F
:101A10003093300120932F0110922C0110922B0152
:101A200040912D0150912E01849F9001859F300D92
:101A30001124309332012093310110922E01109223
:101A40002D011092290188E80E947F0DFF91EF91EE
:101A5000BF91AF919F918F917F916F915F914F91C6
:101A60003F912F910F900FBE0F901F901895CF931D
:101A7000DF93EC016C8180E00E9417208A8D60E08A
:101A800081116A8581E0DF91CF910C941720CF936B
:101A9000DF93EC01FB01FC9628E0DC0101900D9244
:101AA0002A95E1F7DC011896FB01EC5BFF4F88E01B
:101AB00001900D928A95E1F78881882321F088852D
:101AC000882321F082E0DF91CF91089581E0FBCF60
:101AD00014BC85B5846085BD85B58D7F85BD85B514
:101AE000816085BD0895EEE6F0E0808181608083AD
:101AF0000895EEE6F0E080818E7F8083089586BDB4
:101B000008957F928F929F92AF92BF92CF92DF9271
:101B1000EF92FF920F931F93CF93DF93CDB7DEB772
:101B200029970FB6F894DEBF0FBECDBF6C01862E8D
:101B3000772E7A01022F422F50E070E060E0C7015B
:101B40000E94EA24CE0109960E94300E182F8111BE
:101B500016C010E0812F29960FB6F894DEBF0FBE95
:101B6000CDBFDF91CF911F910F91FF90EF90DF904C
:101B7000CF90BF90AF909F908F907F900895898570
:101B8000882341F3912C8FEF9E012F5F3F4F590126
:101B9000B5010E949D0E9FEF980FF5019D3FE8F45F
:101BA0008D3FB9F22981A82DB72D90E0091781F357
:101BB0003D91231310C097FDEBCF2981A82DB72DA0
:101BC00090E0091729F03D9123130AC097FF0AC03E
:101BD0008111DECFBFCF9F5FE9CF8E3F70F3BACFC9
:101BE0009F5FEFCFD701A90FB11D97FDBA959C91CB
:101BF0009F5F9C9338E0939ED0011124AC0DBD1DD6
:101C000098E001900D929A95E1F79394882309F456
:101C1000A1CF92E09912BCCF9DCF9FB7F894419885
:101C2000399A28E02A95F1F70000882311F03998B5
:101C3000419A25E32A95F1F70000319B80E020EBE3
:101C40002A95F1F70000419A399897FF01C07894DE
:101C500092E59A95F1F7089586B186958170089579
:101C6000FC014198399A81EE92E00197F1F700006A
:101C7000A1EEB2E01197F1F700009FB7F894399800
:101C8000419AA4ECB0E01197F1F700C086B197FF3C
:101C900001C07894A1EEB2E01197F1F70000ACE139
:101CA000B2E01197F1F700C0319B06C086958170B4
:101CB00091E089278083089580E0FCCFCF93DF9364
:101CC000EC0188810E940D0E91E0811101C090E02D
:101CD000988381E0DF91CF910895CF93DF93C82F50
:101CE000D8E08C2F81700E940D0EC6958111C068BE
:101CF000D150B9F78C2FDF91CF9108951F93CF93D7
:101D0000DF939C01162F180F121305C081E0DF919D
:101D1000CF911F910895E9018FEF0E946D0E899375
:101D20009E01F2CFCF93DF93EC018FEF0E946D0EF7
:101D3000888381E0DF91CF910895BF92CF92DF92A7
:101D4000EF92FF920F931F93CF93DF930F92CDB734
:101D5000DEB7C82E7B01CE0101960E94300E88238B
:101D600009F44AC08981882309F446C080EF0E94A3
:101D70006D0ED12C10E498EFB92EB10E81E00E94C7
:101D80000D0E082F81E00E940D0E882329F00023FC
:101D900089F08EEFD82E1FC001110CC01C1538F130
:101DA000F7018081982F917080FF04C01C1511F0FD
:101DB000092FD12E802F0E940D0EF701908196954C
:101DC000011118C0908311501B11D8CFFFEFEF1AEB
:101DD000FF0A1111D0CF8D2D0F90DF91CF911F9160
:101DE0000F91FF90EF90DF90CF90BF900895D12E8C
:101DF00001E0E0CF9068E6CFDD24DA94ECCFCF921B
:101E0000DF92FF920F931F93CF93DF930F92CDB783
:101E1000DEB78C01CE0101960E94300EF82E882389
:101E2000A9F0F980FF2091F001151105C9F085E5B1
:101E30000E946D0E680188E0C80ED11CF8018191E6
:101E40008F010E946D0E0C151D05C1F78F2D0F908F
:101E5000DF91CF911F910F91FF90DF90CF90089568
:101E60008CEC0E946D0EF2CF1F93CF93DF939C01F9
:101E7000162F180F121305C081E0DF91CF911F912B
:101E80000895E90189910E946D0E9E01F3CFFC0136
:101E900084818F798F31C9F480819681803539F4BE
:101EA0002181253049F49C3039F481E008958F3F39
:101EB00019F421812730B9F38F7020E130E0281B1D
:101EC000310981E09217130689F380E008951F928B
:101ED0008F9384E694E09F938F930E9449250F90FF
:101EE0000F900F900F9008950F931F93CF93DF9350
:101EF00000D00F92CDB7DEB78C016B83CE01019677
:101F00000E94300EC8010E94FF0E61E0CE010396D0
:101F10000E94340F61E0CE0102960E947E0E8A81FB
:101F20000F900F900F90DF91CF911F910F91089517
:101F30000F931F93CF93DF9300D0CDB7DEB78C0103
:101F4000CE0102960E94300EC8010E94FF0E84E668
:101F5000898361E0CE0101960E94340F0F900F90AB
:101F6000DF91CF911F910F9108958F929F92AF9221
:101F7000BF92DF92EF92FF920F931F93CF93DF9365
:101F80008B01D42E7C01D0E0C0E089E6A82E84E04D
:101F9000B82E4B0181E0881A9108F70181917F01E9
:101FA0001F928F93BF92AF920E9449250F900F907E
:101FB0000F900F908C169D0619F08D2D0E94181F02
:101FC00021960C171D0749F7DF91CF911F910F91B3
:101FD000FF90EF90DF90BF90AF909F908F9008950B
:101FE0000F931F93CF93DF9300D000D00F92CDB704
:101FF000DEB78C01CE0105960E94300EC8010E940A
:10200000FF0E8EE489838FEA8A838EEF8B838FE7BE
:102010008C8364E0CE0101960E94340FCE010596B8
:102020000E94300EC8010E94FF0E84E4898361E0A3
:10203000CE0101960E94340F80E293E0EFEFFBE0C7
:102040003197F1F700C000000197C1F70F900F9092
:102050000F900F900F90DF91CF911F910F910895E6
:102060000F931F93CF93DF930F92CDB7DEB78B0102
:102070002EEB29830E94FF0E811102C080E016C062
:1020800061E0CE0101960E94340F8823B9F369E024
:10209000C8010E947E0E882389F369E070E0C801C0
:1020A0000E947020982F81E09111E8CF0F90DF916E
:1020B000CF911F910F910895EF92FF920F931F936D
:1020C000CF93DF9300D00F92CDB7DEB77C01162FF0
:1020D00088E090E02FEF00E0000F322F3170030F07
:1020E00026950197C9F7CE0103960E94300EC701CD
:1020F0000E94FF0E85E989830A8362E0CE01019682
:102100000E94340FCE0103960E94300EC7010E9438
:10211000FF0E83E68983110F110F110F1D5F1A83C4
:1021200062E0CE0101960E94340F0F900F900F9045
:10213000DF91CF911F910F91FF90EF9008950F9332
:102140001F93CF93DF93CDB7DEB729970FB6F894DF
:10215000DEBF0FBECDBF8B01BE016F5F7F4F0E9400
:102160003010882309F443C029813A8160E037FFA9
:1021700004C031952195310961E09D8190769032BE
:1021800009F440C0903409F43FC0911101C0287F88
:10219000A90174E0569547957A95E1F79AE0949FE6
:1021A000F001959FF00D11242F703327A0E8B2E0C5
:1021B0002A9FA0012B9F500D3A9F500D11246111B1
:1021C00001C05E5F9A01232F3327269526952E0F97
:1021D0003F1F662319F0319521953109A9014A5D08
:1021E0005D4F4930574090F4F801318320832996A0
:1021F0000FB6F894DEBF0FBECDBFDF91CF911F9118
:102200000F9108952C7FC4CF2E7FC2CF80E0EFCFF7
:10221000CF93DF930F92CDB7DEB724E429830E94DA
:10222000FF0E882329F061E0CE0101960E94340F51
:102230000F90DF91CF9108957F928F929F92AF92EE
:10224000BF92CF92DF92EF92FF920F931F93CF93A3
:10225000DF93CDB7DEB7A9970FB6F894DEBF0FBEF8
:10226000CDBF7C014AE368E070E00E94B50F68E0F2
:1022700070E0C7010E94702010E000E0882351F058
:102280008FE899E09F938F930E9449250F900F90BC
:1022900001E010E0F7018681811107C0858181117D
:1022A00004C08081883209F452C00F5F1F4F87E459
:1022B00099E09F938F930E9449250F900F908AE396
:1022C00099E09F938F930E9449256E01FCE1CF0E08
:1022D000D11CB601C7010E9430100F900F9056011B
:1022E000811104C0B601C7010E94301082E299E05A
:1022F0009F938F930E9449254FE269E070E0C501EA
:102300000E94B50F69E070E0C5010E9470200F9037
:102310000F908823F9F08EEE98E09F938F930E94A0
:1023200049250F900F90A9960FB6F894DEBF0FBE07
:10233000CDBFDF91CF911F910F91FF90EF90DF9074
:10234000CF90BF90AF909F908F907F9008958DE336
:1023500099E0AFCF8BEE98E09F938F930E94492531
:1023600085EC98E09F938F930E9449254FE263E0AC
:1023700070E0CE014E960E94B50F81EC98E09F93DD
:102380008F930E9449250F900F900F900F900F9000
:102390000F908E8D8B3439F48F8D863421F488A183
:1023A0008F3709F449C08BE998E09F938F930E947F
:1023B00049250F900F908AE698E09F938F930E9493
:1023C000492589A10E94670F86E698E09F938F9325
:1023D0000E9449250F900F900F900F9089A18F3F79
:1023E00071F10F5F1F4F8EE298E09F938F930E94D1
:1023F00049250F900F908FE098E09F938F930E9454
:1024000049258AA10E94670F8BE098E09F938F93E4
:102410000E9449258AA19FEF980F0F900F900F906F
:102420000F909031B8F49C8D903561F42D8D25304E
:1024300071F488EE97E012C082E898E0B6CF87E2A8
:1024400098E0D3CF9F3F19F42D8D273091F3890F5A
:102450008F7079F30F5F1F4F8FEE97E09F938F93ED
:102460000E9449250F900F9080ED97E09F938F93E6
:102470000E9449258BA10E94670F8CEC97E09F93E7
:102480008F930E9449250F900F900F900F908BA172
:10249000803109F4D6C10F5F1F4F84E997E09F9305
:1024A0008F930E9449250F900F904E0129E2820ED2
:1024B000911CC4010E94300EC7010E94FF0E8EE4E1
:1024C0008DA38E8D80958EA38F8D80958FA38FE3A6
:1024D00088A76E0185E2C80ED11C64E0C6010E9487
:1024E000340FBE016D5E7F4FC7010E943010B82CC3
:1024F000A92C9C2C8D2C811106C0BE016D5E7F4FD6
:10250000C7010E9430108BE697E09F938F930E9443
:1025100049258E8D80950F900F909D89981306C048
:102520008F8D80959E89981709F48EC10F5F1F4F7C
:1025300080E497E09F938F930E9449258E8D80952C
:102540000E94670F8FE20E94181F8F8D80950E9456
:10255000670F88E397E09F938F930E9449254FE28E
:1025600062E070E0CE0145960E94B50F8CE297E0E4
:102570009F938F930E9449250F900F900F900F907B
:102580000F900F9082E097E09F938F930E944925D0
:102590000F900F908F898F3309F45FC10F5F1F4F2A
:1025A00085EE96E09F938F930E9449258F890E9424
:1025B000670F89ED96E09F938F930E9449250F90B6
:1025C0000F900F900F9080EB96E09F938F930E9457
:1025D00049250F900F90988D89A1981309C0998D66
:1025E0008AA1981305C09A8D8BA1981709F43EC152
:1025F0000F5F1F4F85EA96E09F938F930E944925B6
:102600004FE263E070E0CE0148960E94B50F8AE980
:1026100096E09F938F930E9449250F900F900F9003
:102620000F908B2D9A2D0E94300EC7010E94FF0E35
:102630008EE48DA38E8D8EA38F8D8FA38FE788A7B9
:1026400064E0892D982D0E94340FBE01665F7F4F94
:10265000C7010E943010811106C0BE01665F7F4F26
:10266000C7010E94301080E796E09F938F930E94ED
:1026700049250F900F908E858F3709F400C10F5FA9
:102680001F4F8FE496E09F938F930E9449258E857C
:102690000E94670F83E496E09F938F930E944925E1
:1026A0000F900F900F900F908AE196E09F938F9379
:1026B0000E9449250F900F909F85888D981309C01F
:1026C0009889898D981305C099898A8D981709F47E
:1026D000DFC00F5F1F4F8FE096E09F938F930E94A4
:1026E00049254FE263E070E0CE010F960E94B50FDE
:1026F00084E096E09F938F930E9449250F900F905E
:102700000F900F9081ED95E09F938F930E94492544
:102710008A850F900F909889803509F0C2C02B856B
:10272000253009F0C4C0913108F0C7C086E0C82E3A
:10273000D12C94E4792E91E0C91AD10809F4D5C0BE
:102740008B2D9A2D0E94300EC7010E94FF0E7DA294
:1027500061E0892D982D0E94340FEFEFFFE12CE10D
:10276000E150F0402040E1F700C00000BE016F5F83
:102770007F4FC7010E943010811106C0BE016F5FFC
:102780007F4FC7010E9430108981803509F098C0C1
:102790009A81953081F29F819C3009F099C0845FC5
:1027A0008F7049F20F5F1F4F86E795E09F938F93DD
:1027B0000E94492589810E94670F85E695E09F93D5
:1027C0008F930E9449258F810E94670F8AE595E0CB
:1027D0009F938F930E9449250F900F900F900F9019
:1027E0000F900F90FF24F39489E395E09F938F93CC
:1027F0000E9449250F900F9080E095E0FF2011F096
:1028000089EF94E09F938F930E9449250F900F903A
:1028100087ED94E00115110509F47FCD1F930F9307
:1028200082EA94E09F938F930E9449250F900F9026
:102830000F900F900130110509F075CD8EE694E0F0
:102840006CCD8DE897E02BCE85E297E09F938F9338
:102850000E9449250F900F9095CE82ED96E09F93B0
:102860008F930E9449250F900F90ADCE83E996E09B
:102870009F938F930E9449250F900F90D2CE8CE3A7
:1028800096E09F938F930E9449250F900F900CCF55
:102890008DEF95E09F938F930E9449250F900F90A5
:1028A00031CF8F3F21F42B85273009F43CCF9C306A
:1028B00021F4845F8F7009F439CF80E495E00EC075
:1028C0008F3F09F068CF9A81973009F064CF33CFFA
:1028D000890F8F7009F066CF8CE895E09F938F93F6
:1028E0000E9449250F900F907DCF83E995E09F933B
:1028F0008F930E9449250F900F90F12C75CF7F92F6
:102900008F929F92AF92BF92CF92DF92EF92FF92FF
:102910000F931F93CF93DF93CDB7DEB760970FB6BA
:10292000F894DEBF0FBECDBF8C014AE368E070E0D3
:102930000E94B50F68E070E0C8010E9470208823F3
:1029400041F087E594E09F938F930E9449250F9073
:102950000F9085E594E09F938F930E94492568E648
:10296000C8010E94740F982E63E9C8010E94740F79
:102970000F900F909E01265F3F4F59013FEF93123A
:1029800077C0F12CE12CC8010E94980F67E9C801BB
:102990000E94740FD82E32E28BEB93E0D31629F00D
:1029A00081E3D812F6C187EA93E09F938F930E9448
:1029B00049250F900F90EFEFEE1AFE0A6BE8C80161
:1029C0000E94740FD82EF6E082E593E0DF1649F0FE
:1029D00022E08EE393E0D21621F0D110F2C186E11D
:1029E00093E09F938F930E9449250F900F908FEF54
:1029F000E81AF80ACE010E960E94300EC8010E9415
:102A0000FF0E8EE48A878AEA8B8785E58C871D8690
:102A100064E0C5010E94340FBE016F5F7F4FC801A3
:102A20000E943010811106C0BE016F5F7F4FC80148
:102A30000E943010FE0131966F018191811114C204
:102A4000EA15FB05D1F78CEA92E09F938F930E94E1
:102A500049250F900F90E114F10409F0E3C18EE8CD
:102A600092E09F938F930E9449250F900F90E0C1B1
:102A70006FE0C8010E945C10C8010E94F00FBE0107
:102A80006F5F7F4FC8010E943010811106C0BE01E8
:102A90006F5F7F4FC8010E94301069E070E0CE0187
:102AA00001960E947020F82E8823B9F08CEF93E0F5
:102AB0009F938F930E9449250F900F908DEF9FEF6A
:102AC0009C01215031092230310518F0019609F09E
:102AD00058CFEE24E394F12C56CFCE0101960E94FC
:102AE000470F882309F452C179808A80CE010E965F
:102AF0000E94300E01151105E1F1C8010E94FF0E80
:102B000083E98A8761E0C5010E94340F61E0CE014C
:102B100040960E947E0ECE010E960E94300E011548
:102B2000110571F1C8010E94FF0E88E68A8761E0F5
:102B3000C5010E94340F61E0CE010F960E947E0E07
:102B40002F85988948E050E0FF0C892F8170F80E9E
:102B5000969541505109C1F7822F877090E0982FC8
:102B600088278F0D911D8F3F934089F090E080E082
:102B7000A7CF8CEC8A8761E0C5010E94340FC0CFDB
:102B80008CEC8A8761E0C5010E94340FCECF269578
:102B9000269526952F3051F760E0C8010E945C1001
:102BA000C8010E94F00FBE016F5F7F4FC8010E94F5
:102BB0003010811106C0BE016F5F7F4FC8010E94B7
:102BC000301069E070E0CE0101960E947020811102
:102BD0006DCFCE0101960E94470F882309F4D6C01D
:102BE000CA80D12CDC2CCC248981C80ED11C6FE189
:102BF000C8010E945C10C8010E94F00FBE016F5F07
:102C00007F4FC8010E943010811106C0BE016F5F66
:102C10007F4FC8010E94301069E070E0CE0101963C
:102C20000E947020811142CFCE0101960E94470F71
:102C3000882309F4ABC0EA80F12CFE2CEE248981B4
:102C4000E80EF11C60E1C8010E945C10C8010E94FE
:102C5000F00FBE016F5F7F4FC8010E9430108111DD
:102C600006C0BE016F5F7F4FC8010E94301069E04F
:102C700070E0CE0101960E947020811117CFCE0125
:102C800001960E94470F882309F480C0482D50E028
:102C9000542F4427470D511D6A8170E0762F662717
:102CA0008981680F711D3C2D2D2DEC14FD0414F449
:102CB0003E2D2F2D832F922F481759070CF4CA0150
:102CC000681779070CF4CB01FC2DED2DCE14DF0431
:102CD00014F4FE2DEF2D2F2F3E2F241735070CF463
:102CE0009A01261737070CF49B01461B570BEC186B
:102CF000FD08E416F50634F4B901681B790B61345C
:102D00007140CCF54E155F0594F4281B390B215109
:102D100031092F34310558F48AE394E09F938F935F
:102D20000E9449250F900F9081E090E0C9CE8AED76
:102D300093E09F938F930E94492563E9C8010E9405
:102D4000740F0E94670F82ED93E09F938F930E9410
:102D50004925892D0E94670F8FEC93E09F938F93F5
:102D60000E9449250F900F900F900F900F900F9099
:102D70008FEF9FEFA5CE86E294E09F938F930E9402
:102D800049250F900F9082E090E09ACE8EEF9FEF52
:102D900097CE9FEFD91609F411CE8DE793E09F935C
:102DA0008F930E9449258D2D0E94670F8AE793E03B
:102DB0009F938F930E9449250F900F900F900F9033
:102DC000FACD3FEFD31609F415CE8CEE92E09F9327
:102DD0008F930E9449258D2D0E94670F89EE92E006
:102DE0009F938F930E9449250F900F900F900F9003
:102DF000FECD69E070E0CE0101960E947020811145
:102E000022CEDD80C8010E94980F9D1024CE86ED51
:102E100092E09F938F930E944925FFEFEF1AFF0ADC
:102E20000F900F908DE592E0EA94EF2809F019CE0B
:102E300088E592E09F938F930E9449250F900F9011
:102E400060960FB6F894DEBF0FBECDBFDF91CF9175
:102E50001F910F91FF90EF90DF90CF90BF90AF90B8
:102E60009F908F907F90089569E070E0CE01019669
:102E70000E9470208111E7CD9D80CE010E960E94A8
:102E8000300EC8010E94FF0E8EE48A878AEA8B8783
:102E900085E58C878FEF8D8764E0C5010E94340F34
:102EA000BE016F5F7F4FC8010E943010811106C0C4
:102EB000BE016F5F7F4FC8010E943010F601819103
:102EC0006F01811196CFEA15FB05C1F7BCCD1F92AA
:102ED0009BE19F931F928F931F929F938AEC96E1A1
:102EE0009F938F930E9449258DB79EB708960FB682
:102EF000F8949EBF0FBE8DBF0895CF92DF92EF92E0
:102F0000FF920F931F93CF93DF936C01162F7A01DB
:102F10004115510521F0FA018081811112C080E331
:102F200095E19F938F930E9449250F900F9081E028
:102F3000DF91CF911F910F91FF90EF90DF90CF9095
:102F40000895683009F486C0633008F18D3279F352
:102F5000CA010E94AB24143031F4823040F7F601EC
:102F6000808380E0E5CF133019F48536C0F3DFCFDE
:102F7000153019F4803198F3DACF163019F4873010
:102F800070F3D5CF173059F7833048F3D0CF61E1D4
:102F900071E0CA010E94E5240E94AB24EC011130CB
:102FA00009F461C08AE01230E1F19E01829FE001E4
:102FB000839FD00D112401E060E171E090E080E09A
:102FC0000E94E524FC01892BD1F080818823B9F08F
:102FD000002309F4ACCFDF010D900020E9F7119731
:102FE000AE1BBF0B129708F0A2CFCF010E94AB24FB
:102FF0009C01F70180818D3209F5C21BD30B1111A1
:1030000020C0C33EF4E0DF0714F0C2EED4E0CA3DB6
:103010002DEFD20714F4CAEDDDEFF601D183C083A2
:10302000A0CFFE018E9FE0018F9FD00D112401E003
:10303000F70180818D3209F0BFCF79CFC20FD31F46
:10304000DECF123051F7C93037E0D30734F3C8E090
:10305000D7E0E3CF40E150E0B701C6010E940B2565
:10306000F60117867ECF00E0E3CFCF93DF93FC011C
:1030700083E496E49183808394E6928384E183835E
:1030800084831682158290878187828714861386AF
:1030900024EB30E0378726878CE291E0918B808BA0
:1030A000138A128A358B248B978B868B118E108E08
:1030B000128E17821586138E13A613AEDF01DC96CF
:1030C00088E0ED01982F19929A95E9F7EC5BFF4F94
:1030D000DF011D928A95E9F7DF91CF9108950F9353
:1030E0001F93CF93DF93EC018B016BE275E1C80175
:1030F0000E94D224892B59F488E0FE0111928A950E
:10310000E9F780E0DF91CF911F910F91089563E17E
:1031100071E0C8010E94E524FC018E01085F1F4F89
:103120003097B1F08081882399F040E150E070E061
:1031300060E0CF010E947723699363E171E090E042
:1031400080E00E94E524FC01C017D10749F7D9CFE0
:1031500081E0D8CF2F923F924F925F926F927F92F1
:103160008F929F92AF92BF92CF92DF92EF92FF9297
:103170000F931F93CF93DF93CDB7DEB7C056D1091E
:103180000FB6F894DEBF0FBECDBF8C0184E097E18F
:103190009F938F930E9449250F900F90E4E6FE2E97
:1031A0000E94CA1F811123C08FEF97E70197F1F7A3
:1031B00000C00000FA94F110F3CFC05ADF4F0FB6F1
:1031C000F894DEBF0FBECDBFDF91CF911F910F915D
:1031D000FF90EF90DF90CF90BF90AF909F908F9037
:1031E0007F906F905F904F903F902F9008950E9436
:1031F000D31F8330C9F681E097E19F938F930E949C
:1032000049250F900F906F961FAE6F97AE014F5FDD
:103210005F4F1A014A01CE018B5A9F4F6A969FAFAA
:103220008EAF6A973E0193E5690E711CDE01AF5ABD
:10323000BF4F6C96BFAFAEAF6C976B96BFAD6B9741
:10324000A096BFAFA0976C96EFAD6C97A196EFAF2D
:10325000A1972E01F1E44F0E511C0AC1A4E06D9616
:10326000AFAF6D9716C1E1E06D96EFAF6D9711C1ED
:10327000F7E06D96FFAF6D970CC128E06D962FAF0C
:103280006D9707C148E06D964FAF6D9702C151E051
:103290006D965FAF6D97FDC0A3E0E1CF6F961FAE57
:1032A0006F97F7C06D962FAD6D97243009F082C0EF
:1032B00041E4841335C080919802882309F48EC0BC
:1032C000BB2019F08B2D0E94671780919702811106
:1032D00003C054E05093970260919702615060934D
:1032E000970280E4689FB00111246A567E4FC401A2
:1032F0000E940425F10101900020E9F73197BE2ECC
:10330000B2183F922F92FF92EF920E9449250F90A0
:103310000F900F900F9091E06D969FAF6D97B9C091
:10332000A2E48A1334C080919802882309F49BCFC9
:10333000BB2019F08B2D0E9467178091970261E0E6
:10334000680F833001F160939702B0E46B9FB00186
:1033500011246A567E4FC4010E940425F101019098
:103360000020E9F73197BE2EB2183F922F92E5ED7B
:10337000F6E1FF93EF930E9449250F900F900F9075
:103380000F9041E080CF1092970260E0DECF53E3D0
:10339000851709F46DCF8FEC8A0D823008F46DCF5C
:1033A0008CEC8A0D833008F46DCF81E06D968FAF81
:1033B0006D976FC06D969FAD6D979730A1F4AEE796
:1033C0008A1365CFBB2089F388E00E94181F80E232
:1033D0000E94181F88E00E94181FBA94B1E06D96F1
:1033E000BFAF6D9756C06D96EFAD6D97E83009F49D
:1033F00092CFFFE3FB150CF05BC0BA948B2D0B2C26
:10340000000C990BF101E80FF91F1082D82EBB2098
:1034100011F180919602843008F497C010929602C0
:1034200066E9E62E61E0F62EC12CB401C7010E94C8
:10343000F124C394892B09F08EC0E4E0CE1201C0C0
:10344000C12CC09297028BED96E19F938F930E94BF
:1034500049250F900F9081E08D0D823008F095C0C6
:1034600086EF96E19F938F930E9449250F900F90CE
:1034700089EF96E19F938F930E9449250F900F90BB
:10348000B12C91E06D969FAF6D9778EDE72E76E1C8
:10349000F72E0E94221FA82E6D96BFAD6D97B330F8
:1034A00009F000CFEBE58E1709F4D8CEF1E0E1CEBC
:1034B00023E1821771F345E1841308C0BB2049F36F
:1034C0008B2D0E9467171982B12CE3CF5BE1851722
:1034D00009F4E2CE6F968FAD6F97882339F09AE0AA
:1034E000A91609F4DBCEAA2009F4D8CEA3E0AA16C7
:1034F00009F448C0B8E0AB1619F0EFE7AE120DC002
:10350000BB2039F288E00E94181F80E20E94181F39
:1035100088E00E94181FBA94BCCF6101CB0CD11C6B
:10352000B7FCDA94FAE0AF1609F468CF2DE0A216E2
:1035300039F08A2D0E94181FD601AC92B394A9CFFE
:10354000B1E06F96BFAF6F9759CF809198028F5FB0
:103550008093980265CFF0E4EF0EF11C24E0C212D4
:1035600064CFF0909602F0E4FF9EC0011124B401F4
:103570008A569E4F0E940425F394F0929602F09290
:10358000970261CFDD24DA9466CF65E171E0C40172
:103590000E94E524F82EE92E60E171E090E080E0E1
:1035A0000E94E5246C0162EC76E18F2D9E2D0E9435
:1035B000D224892B69F4A60163E0C80102960E9417
:1035C0007D1718160CF4F7C38F3F09F028C1F5CD0D
:1035D0006AEB76E18F2D9E2D0E94D224892B29F44F
:1035E000A60163E0C8010396EACF60EB76E18F2D78
:1035F0009E2D0E94D224892B29F4A60163E0C801E4
:103600000496DDCF65EA76E18F2D9E2D0E94D224AF
:10361000892B29F4A60161E0C8010596D0CF6DE998
:1036200076E18F2D9E2D0E94D224892B29F4A601AC
:1036300063E0C8010896C3CF65E976E18F2D9E2D22
:103640000E94D224892B29F4A60163E0C8010996BF
:10365000B6CF6BE876E18F2D9E2D0E94D224892B68
:1036600029F4A60163E0C8010A96A9CF60E876E1D3
:103670008F2D9E2D0E94D224892B29F4A60161E072
:10368000C8010B969CCF67E776E18F2D9E2D0E9497
:10369000D224892B29F4A60160E0C80140968FCF7F
:1036A0006EE676E18F2D9E2D0E94D224892B29F47F
:1036B000A60160E0C8010E9682CF64E676E18F2D08
:1036C0009E2D0E94D224892B29F4A60162E0C80114
:1036D000429675CF6BE576E18F2D9E2D0E94D22408
:1036E000892B29F4A60160E0C801469668CF62E5FF
:1036F00076E18F2D9E2D0E94D224892B29F4A601DC
:1037000060E0C80144965BCF68E476E18F2D9E2D82
:103710000E94D224892B29F4A60162E0C8014896B0
:103720004ECF6CE376E18F2D9E2D0E94D224892B03
:1037300029F4A60164E0C8014A9641CF61E376E12D
:103740008F2D9E2D0E94D224892B29F4A60164E09E
:10375000C801079634CF66E276E18F2D9E2D0E9438
:10376000D224892B29F4A60164E0C8010D9627CF45
:103770006CE176E18F2D9E2D0E94D224892B29F4B5
:10378000A60168E0C8014B961ACF62E176E18F2D61
:103790009E2D0E94D224892B29F4A60168E0C8013D
:1037A0008B960DCF61E076E18F2D9E2D0E94D22465
:1037B000892B29F4A60164E0C801CB9600CF65EF00
:1037C00075E18F2D9E2D0E94D224892B31F4B601F4
:1037D000C801CC960E946F18F4CE69EE75E18F2D6A
:1037E0009E2D0E94D224892B29F4B601C8018C5B3E
:1037F0009F4FF0CF64EE75E18F2D9E2D0E94D22455
:10380000892B89F44CE4B80180E00E94291F89ECDF
:1038100095E19F938F930E9449250F900F90C801C7
:103820000E94370D25CE61EC75E18F2D9E2D0E94F3
:10383000D224892B31F4C8010E9435188DE995E115
:10384000E8CF68E975E18F2D9E2D0E94D224892B47
:1038500049F488E895E19F938F930E9449250F9042
:103860000F90ABCC6FE775E18F2D9E2D0E94D22477
:10387000892B09F0C2C088E266968FAF669721E077
:10388000AE01495A5F4FBE016B5A7F4FC2010E9481
:10389000810D8823E9F01F9282E08F9368968FADA7
:1038A00068971F928F9388E095E19F938F930E9472
:1038B00049250F900F900F900F900F900F906896E2
:1038C0008FAD6897F12C81110CC08EE494E1A1CFEB
:1038D0008FED94E19F938F930E9449250F900F9055
:1038E000EECF48E0F49EC0011124840D951D0E9486
:1038F0000811F39468968FAD6897F81690F35FEF10
:103900008FE19CE1515080409040E1F700C0000001
:10391000B12C5DE2A52E68968FAD6897B816A8F613
:10392000CB2CD12CA8E0BA9E70011124B301C201A6
:103930008E0D9F1D0E949F10BFEFCB1ADB0A8823BC
:1039400009F44EC063961FAE6397F30180819181A5
:1039500097FF42C06296AFAE629797FF03C0919502
:1039600081959109F201EE0DFF1D27811F922F9382
:1039700026811F922F9325811F922F9324811F92BE
:103980002F9323811F922F9322811F922F932181A6
:103990001F922F9320811F922F936AE070E00E9464
:1039A00041239F938F937F936F93A196FFADA19730
:1039B000FF93A0962FADA0972F93DF92CF924CE666
:1039C00054E15F934F930E9449250FB6F894DEBFF0
:1039D0000FBECDBFB3949FCF62961FAE6297BDCF8F
:1039E000DF92CF92E1E5F4E1FF93EF930E94492546
:1039F0000F900F900F900F90EDCF65E775E18F2D31
:103A00009E2D0E94D224892B09F065C088E262961F
:103A10008FAF629721E0A301A0966FADA097A1960A
:103A20007FADA197C2010E94810D882309F44AC08D
:103A30001F9282E08F93D3018C911F928F9389E222
:103A400094E19F938F930E9449250F900F900F90C0
:103A50000F900F900F90F3018081882381F188E10E
:103A600099E20FB6F894A895809360000FBE9093EA
:103A70006000D12CA895F8E0DF9E70011124E40CC1
:103A8000F51CC7010E941C11C7010E947F14D3942A
:103A9000D3018C91D81670F3A89588E19FE00FB6FA
:103AA000F894A895809360000FBE9093600084EB1B
:103AB00093E19F938F930E9449250F900F9081EB84
:103AC00093E1A7CE80E094E19F938F930E944925D4
:103AD0000F900F90C0CF60E775E18F2D9E2D0E9453
:103AE000D224892B09F048C167961FAE6797F80169
:103AF0002089318937FF32C18DE266968FAF669794
:103B0000D30111961C92D8011E96ED91FC91F7FFFE
:103B100029C18DE2D3018C9363961FAE6397D801C0
:103B20005696ED90FC90F7FE20C18DE262968FAF25
:103B30006297D20111961C92D8015496CD90DC90D8
:103B4000D7FE17C18DE2D2018C93D80158968D9182
:103B50009C91D7FE03C0D194C194D108F7FE03C055
:103B6000F194E194F108D80152960D90BC91A02DEA
:103B70006E96BFAFAEAF6E97F7FF03C0F195E195BC
:103B8000F10937FF03C0319521953109D801A55BB3
:103B9000BF4F4C911F924F9311974C911F924F938F
:103BA00011974C911F924F9311974C911F924F93E5
:103BB00011974C911F924F9311974C911F924F93D5
:103BC00011974C911F924F9311974C911F924F93C5
:103BD00011974C911F924F9311974C911F924F93B5
:103BE00011974C911F924F9311974C911F924F93A5
:103BF000D801DF964C91DF971F924F93DE964C9140
:103C0000DE971F924F93DD964C91DD971F924F9355
:103C1000DC964C91DC971F924F93DB964C911F9250
:103C20004F93A801455D5F4F5F934F934AE0A42EE9
:103C3000B12CB5010E942D239F938F937F936F9397
:103C4000C601B5010E9441239F938F937F936F9389
:103C50005F924F92C701B5010E9441239F938F93BA
:103C60007F936F93A196BFADA197BF93A0964FADE1
:103C7000A0974F93C8014B969F938F936E968EADEE
:103C80009FAD6E97B5010E942D239F938F937F93D5
:103C90006F93CF01B5010E9441239F938F937F9330
:103CA0006F937F926F92C901B5010E9441239F9348
:103CB0008F937F936F936A965FAD6A975F936996D0
:103CC0008FAD69978F93D8011D968C911D971F9288
:103CD0008F931C968C911C978F931B968C911B979E
:103CE0008F931A968C911A971F928F9319968C9195
:103CF00019971F928F9318968C9118971F928F93F4
:103D00005A968C915A971F928F9317968C9117976A
:103D10001F928F9316968C9116978F9315968C9170
:103D200015978F9314968C9114971F928F931396D7
:103D30008C9113971F928F9312968C911F928F9351
:103D40008CEE90E19F938F930E9449250FB6F894D3
:103D5000DEBF0FBECDBF89EE90E15BCD66961FAE94
:103D60006697CECED3011C92D7CE62961FAE6297D5
:103D7000E0CED2011C92E9CE6BE675E18F2D9E2D2F
:103D80000E94D224892B41F069E675E18F2D9E2D8A
:103D90000E94D224892B19F483ED99E03ACDEF9259
:103DA000FF928BE495E19F938F930E9449250F909A
:103DB0000F900F900F908EED96E12BCDCF93DF9368
:103DC000EC014CE4BC0180E00E94301F88819981A5
:103DD0008334964491F086EA99E09F938F930E94F2
:103DE0004925CE010E9435180F900F904CE4BE017A
:103DF00080E0DF91CF910C94291FDF91CF9108953E
:103E000088E198E00FB6F894A895809360000FBE03
:103E100090936000FFCFCF93C82F0E94FA1F8111AB
:103E2000FCCF8C2F0E94E51F90E080E0CF91089599
:103E3000CF93C82F0E94FA1F8111FCCF8C2FCF91F6
:103E40000C94E51F0E94CA1F81110C94D31FA895E2
:103E5000F9CF9B0150E0682F70E0C9010C94F9275D
:103E60009B0150E0682F70E0C9010C94E9272F9363
:103E70002FB72F938F939F93EF93FF938091C00061
:103E80009091C600E0919B02EF5F20919A022E175D
:103E900089F08871E0939B02F0E0E256FD4F908339
:103EA00080939902FF91EF919F918F912F912FBF56
:103EB0002F91189580E0F4CF8F938FB78F939F93B6
:103EC000EF93FF9390919D0280919C02981799F037
:103ED000E0919C02EF5FEF73E0939C02F0E0E2560A
:103EE000FC4F80818093C600FF91EF919F918F914D
:103EF0008FBF8F9118958091C1008F7D8093C100F5
:103F0000F3CF10929D0210929C0210929B0210928D
:103F10009A02282F21709091C20080FF31C09064D6
:103F20009093C2009091C20092609093C2009091D1
:103F3000C20094609093C2009091C10081FF22C0A2
:103F400094609093C100222319F082FF1DC0549AFF
:103F500083FF1CC08091C10080618093C10080916B
:103F6000C10080688093C1006093C4007093C50055
:103F70008091C10088608093C100519A5098089543
:103F80009F7BCECF9B7FDDCF5498E2CF8091C10045
:103F90008F7EE3CF20919B0290919A0281E02913BA
:103FA00001C080E0089590919B0280919A02981739
:103FB00051F0E0919A02EF5FE0939A02F0E0E2564E
:103FC000FD4F8081089580E0089590919D029F5F4C
:103FD0009F7320919C022917E1F3E92FF0E0E2564C
:103FE000FC4F808390939D028091C10080628093FA
:103FF000C100089590919D0280919C02981309C080
:104000008091C00085FB882780F991E08927817025
:10401000089581E0FCCF80919902089582EA80930F
:10402000800089E080938100219A229A0895CF939D
:10403000DF9300D000D00F92CDB7DEB78D83862FEF
:1040400090E0B0E0A0E09C01AD0189E0220F331FB9
:10405000441F551F8A95D1F729833A834B835C838C
:10406000CA01B90124E630E040E050E00E94552347
:1040700021153105B1F43D81332371F05C988091B5
:1040800080008F7D809380000F900F900F900F9095
:104090000F90DF91CF9108955F98809180008F7786
:1040A000F1CF211542E0340711F42FEF31E05D81AB
:1040B000552359F05C9A8091800080628093800043
:1040C00030938B0020938A00DFCF5F9A809180002D
:1040D0008068809380003093890020938800D4CF3B
:1040E000FC01680F791F80E048E1E617F70709F443
:1040F0000895219198E0382F3227532F517030FDC9
:10410000842786955111806826959150A1F7EDCFAF
:104110000F92CDB7DEB788E19FE00FB6F894A8956F
:10412000809360000FBE90936000A89578943A98B1
:104130003B98579A549A209855985698389853987F
:1041400052988091680082608093680080916C0032
:10415000846080936C0080916C00886080936C0018
:1041600086B180932A010E94680D6FE470E088E1B7
:104170000E94811F80E091E09093E3038093E2032B
:104180008AE391E00E94DE1E0E940E208AE391E005
:104190000E94370D8AE391E00E94AA18109229012B
:1041A00085B180932A011092350110923701109247
:1041B0003601109239011092380110922C011092A0
:1041C0002B011092300110922F0110922E011092AB
:1041D0002D01109232011092310181E08093330160
:1041E0008093340180917501882309F48EC06AE3BD
:1041F00071E088E191E00E94470D809328011F92B1
:1042000092E09F931F928F9389E292E09F938F9306
:104210000E9449250F900F900F900F900F900F90D4
:1042200080912801811108C081EB91E09F938F93C9
:104230000E9449250F900F900E94730DA8958DE85C
:1042400091E09F938F930E9449250F900F90D12C5E
:1042500052EA852E50E0952E61E4262E61E0362E3E
:1042600078E6672E70E0772EE5E84E2EE0E05E2ED1
:1042700010E080912801181708F468C08FEF9FE7BD
:104280002CE1815090402040E1F700C000000E94E6
:10429000CA1F882391F00E94D31F843071F48BE6EB
:1042A00091E09F938F930E9449250F900F900E9459
:1042B000FA1F8111FCCF0E94001F809128018823E2
:1042C00009F44EC066E371E088E191E00E949F101E
:1042D000811187C03F922F920E94492560913C0135
:1042E00080E00E9417200F900F908091280181306C
:1042F00009F0F0C080915401882309F46BC06091EB
:10430000420181E00E941720E5C088E2898321E014
:1043100048E251E0BE016F5F7F4F88E191E00E946B
:10432000810D882351F01F9282E08F9380912801A4
:104330001F928F9386E092E069CF8DED91E09F937D
:104340008F930E9449250F900F906ACF28E0129F0B
:10435000C0011124885E9E4F0E9408111F5F89CF03
:1043600060913C0180E00E94172060912F017091C4
:10437000300141E080E00E94230C80913C011F92BB
:104380008F939F928F920E9449250F900F900F90CC
:104390000F90809154018823C9F06091420181E01F
:1043A0000E941720609131017091320140E081E05C
:1043B0000E94230C809142011F928F939F928F92B3
:1043C0000E9449250F900F900F900F908091280127
:1043D000811178CF84E08D1508F4DAC0D394A895C4
:1043E00047CFE0904C01F0904D01009148011091B1
:1043F000490120914A0130914B0143E3A42E41E051
:10440000B42EC090410140913D0160913C018091EA
:104410003601909137010E94B90B182F682F80E068
:104420000E941720609136017091370121E045E527
:1044300051E080E00E944A0C60912F0170913001A0
:1044400040E080E00E94230C1F921F939F928F9266
:104450000E9449250F900F900F900F908091280196
:104460008130C1F580915401882309F4B3CFE090E5
:104470005201F090530100914E0110914F01209193
:1044800050013091510194E3A92E91E0B92EC090D2
:104490004701409143016091420180913601909122
:1044A00037010E94B90B182F682F81E00E94172056
:1044B000609131017091320140E081E00E94230C53
:1044C0001F921F939F928F920E9449250F900F90E9
:1044D0000F900F9080912801823008F47BCF80915B
:1044E0005401882309F476CF68E371E080E291E01B
:1044F0000E949F108823F1F1E0905201F090530147
:1045000000914E0110914F012091500130915101C5
:1045100084E3A82E81E0B82EC0904701409143016A
:104520006091420180913801909139010E94B90B4C
:10453000182F682F81E00E94172060913801709138
:10454000390120E045E651E081E00E944A0C60918B
:1045500031017091320140E081E00E94230C1F92F2
:104560001F939F928F920E9449250F900F900F905A
:104570000F9030CF87E191E09F938F930E94492560
:104580006091420181E00E9417200F900F9022CF8E
:104590008091410181112BC020912F013091300178
:1045A00080913F01909140012817390700F55F92F3
:1045B0004F920E94492560913C0180E00E941720A3
:1045C000A8959FEF2FE388E3915020408040E1F7CA
:1045D00000C00000A8959FEF2FE388E39150204092
:1045E0008040E1F700C00000A8950F900F908091E7
:1045F00047018111F4CE80915401882309F4EFCE54
:104600002091310130913201809145019091460114
:104610002817390708F0E3CE7F926F920E94492550
:104620006091420181E00E941720A8959FEF2FE33F
:1046300088E3915020408040E1F700C00000A89539
:104640009FEF2FE388E3915020408040E1F700C0C6
:104650000000A8950F900F90C2CEAA1BBB1B51E182
:1046600007C0AA1FBB1FA617B70710F0A61BB70BE2
:10467000881F991F5A95A9F780959095BC01CD0187
:10468000089597FB072E16F4009407D077FD09D004
:104690000E942D2307FC05D03EF4909581959F4FF5
:1046A0000895709561957F4F0895A1E21A2EAA1B77
:1046B000BB1BFD010DC0AA1FBB1FEE1FFF1FA217D2
:1046C000B307E407F50720F0A21BB30BE40BF50BCF
:1046D000661F771F881F991F1A9469F76095709558
:1046E000809590959B01AC01BD01CF010895A6E096
:1046F000B0E0EDE7F3E20C9438288D839E836B01E4
:104700007A016115710529F0ED81FE81DB01ED93E0
:10471000FC93E114F10429F0C7010297839708F094
:10472000E3C0AD80BE8095012F5F3F4F3E832D8358
:10473000D5011C91812F90E00E94C924892B89F713
:104740001D3209F07CC0ED81FE81108195012E5F44
:104750003F4F3E832D8301E0E114F10409F4E9C0E9
:10476000F0E1EF16F10409F0F1C0103371F4AD81FE
:10477000BE818C918F7D883509F0BBC011961C914C
:1047800011971296BE83AD83026040E1E42EF12CB6
:1047900088248A94982CA82C5FE0B52E80E019829A
:1047A0001A821B821C8227010F2C000C66087708D6
:1047B000E0EDE10FEA3060F09FEB910FE9EC9A3108
:1047C00030F09FE9910F9A3108F051C0E9EAE10F0A
:1047D000EE151F040CF04BC08F3F59F129813A812F
:1047E0004B815C8182169306A406B506F0F1A30105
:1047F000920169817A818B819C810E941B28698347
:104800007A838B839C838E2F90E0B0E0A0E0298197
:104810003A814B815C81280F391F4A1F5B1F298316
:104820003A834B835C83281739074A075B07E8F014
:1048300081E0AD81BE811D91BE83AD83B9CF1B32B6
:1048400039F4AD81BE811C91F5013296FE83ED8372
:1048500000E082CF10E338E0E32EF12C88248A9424
:10486000982CA82C2FE1B22E99CF8FEFE2CFC11454
:10487000D10449F0882379F12D813E8121503109FD
:10488000F6013183208300FF0FC029813A814B81DB
:104890005C8150954095309521953F4F4F4F5F4F2C
:1048A00029833A834B835C838F3F69F482E290E0F3
:1048B0009093E7038093E6038FEF9FEFDC018983FA
:1048C0009A83AB83BC8369817A818B819C81269694
:1048D000E0E10C94542801FFD6CFED81FE813297A0
:1048E000D601ED93FC93CFCF19821A821B821C82D2
:1048F000EACFE114F10409F4ADCF10E3BAE0EB160E
:10490000F104E9F0E0E1EE16F10409F43ECFF8E03D
:10491000EF16F10409F4A2CF6FEF7FEFCB019701FF
:104920000F2C000C440B550B0E94552349015A01D2
:1049300035CF103309F41BCF8AE0E82EF12C99E92A
:10494000892E982CA82C99E1B92E28CF9AE0E91647
:10495000F104E9F6F4CFFC0188279927E894219126
:104960002032E9F3293010F02E30C8F32B3241F019
:104970002D3239F4689404C00E944125820F911DA4
:10498000219120532A30C0F31EF4909581959F4FBA
:10499000089591110C944227803219F08950855066
:1049A000C8F70895FB01DC018D9181341CF08B3533
:1049B0000CF4805E659161341CF06B350CF4605E24
:1049C000861B611189F3990B08954EED53E00E9407
:1049D0001A250895DC0101C06D9341505040E0F765
:1049E0000895FB01DC018D9181341CF08B350CF4B2
:1049F000805E619161341CF06B350CF4605E861B47
:104A0000611189F3990B0895FB01DC0101900D926E
:104A10000020E1F70895FB01DC014150504048F0CF
:104A200001900D920020C9F701C01D9241505040E5
:104A3000E0F70895FA01A191B081009719F4109759
:104A4000E1F0CD01DC01CD010D90002011F4C00199
:104A500013C0FB012191222319F02015D9F7F3CFC0
:104A6000FB012191201519F41E92119606C02223F4
:104A7000C1F70D900020A1F7D001FA01A193B083F6
:104A800008957AE0979F902D879F802D910D112496
:104A90000895B0E0A0E0EFE4F5E20C944428FE01B4
:104AA00037966191719100EE13E0D80112968D91C5
:104AB0009C91DC0113962C911397286013962C93EC
:104AC000AF010E946F259C01D8011296ED91FC91D7
:104AD0009381977F9383C901E4E00C946028AFE051
:104AE000B0E0E5E7F5E20C9436287C013B018A0151
:104AF000DC0117961C921E92169713968C9181FFDB
:104B0000BEC19AE0292EFE0131964F01D7011396BE
:104B10009C91F30193FD859193FF81913F0188233F
:104B200009F444C1853239F493FD859193FF819155
:104B30003F01853229F4B70190E00E945B27E6CF60
:104B4000B12C412C512CBFE1B51538F08B3209F155
:104B500088F4803201F1833221F157FC3AC020ED14
:104B6000280F2A3040F556FE1FC0B29C200D11249C
:104B7000B22E06C08D3291F0803379F7689450F8E8
:104B8000F30193FD859193FF81913F018111DBCF6B
:104B900020C0689451F8689452F8F2CF689453F8A2
:104BA000EFCF689454F8ECCF429C200D1124422E94
:104BB000689455F8E5CF8E3229F456FCF7C0689416
:104BC00056F8DECF8C3619F4689457F8D9CF88366A
:104BD000B9F2982F9F7D95549330C0F08336A1F1A0
:104BE0008337C1F1833509F05BC0D801CD90DD90EA
:104BF0008D016B2D70E056FC02C06FEF7FEFC60198
:104C00000E9445275C01689457F80AC00C5F1F4F4B
:104C1000EFE3E983AA24A394B12C6401E89457F844
:104C200053FC04C04A141B0409F018F5342CA114D9
:104C3000B10431F5332009F469CFB70180E290E087
:104C40000E945B273A94F6CFD8018C9189830E5F3E
:104C50001F4FE0CFF801C190D1908F016B2D70E014
:104C600056FC02C06FEF7FEFC6010E9450275C0127
:104C7000D5CFB70180E290E00E945B274A94D2CF63
:104C8000F60157FC859157FE81916F01B70190E0C5
:104C90000E945B2731103A94B1E0AB1AB108C7CF3C
:104CA000843619F0893609F071C0F80157FE67C0E3
:104CB00061917191819191918F01E52DEF76DE2EB9
:104CC00097FF09C090958095709561957F4F8F4FA4
:104CD0009F4F6894D7F82AE030E0A4010E948B2708
:104CE000C82EC818AC2C5D2CD6FE0CC0E89450F829
:104CF000CB1440F4D4FE05C0D2FC03C05D2D5E7E13
:104D0000552EAB2C54FE93C0FE01EC0DF11D80819D
:104D1000803309F085C0652D697E562E752D78701B
:104D2000372E53FC93C050FE8DC0BC2CA41410F43D
:104D3000B40CBA1854FE90C0B70180E390E00E9412
:104D40005B2752FE07C088E751FC88E590E0B70179
:104D50000E945B27CB1408F48BC0CA94D12C8FEF30
:104D6000C81AD80AC80CD91CD6018E916D01B7019A
:104D700090E00E945B278C149D04B1F75BCF61919A
:104D80007191072E000C880B990B96CFD52CE894C7
:104D9000D4F82AE0853729F1F52DF97FDF2E803709
:104DA000A1F058F48835A1F08F36D1F0F701868153
:104DB00097812F96E2E10C9452288837B9F7D4FEF8
:104DC00002C06894D2F820E10CC06894D4F8F7CF00
:104DD00054FE03C02F2F2660D22E20E132E002C005
:104DE00028E030E0F801D7FE15C041915191619162
:104DF00071914C875D876E877F878F01A4016C85D9
:104E00007D858E859F850E948B27C82EC818E894C3
:104E1000D7F868CF81919191AC0170E060E0E9CF63
:104E200052FC02C0A3947ACFA394A39477CF852D8C
:104E3000867809F473CFF6CFB70180E290E00E9444
:104E40005B27A394A414C0F3312C74CF342C3A18EC
:104E5000A41408F46FCFF8CF852D867809F47ACFA3
:104E60008BE251FE80E257FC8DE2B70190E070CFFB
:104E7000B70180E390E00E945B27BA946BCF8FEF7D
:104E80009FEF97CF992788270895FC0105906150DF
:104E900070400110D8F7809590958E0F9F1F089550
:104EA000FC016150704001900110D8F780959095F9
:104EB0008E0F9F1F08950F931F93CF93DF93182F8B
:104EC000092FEB018B8181FD09C01FEF0FEF812FAF
:104ED000902FDF91CF911F910F91089582FF14C001
:104EE0002E813F818C819D81281739073CF4E88110
:104EF000F981CF0101969983888310838E819F81E8
:104F000001969F838E83E3CFE885F985812F0995EC
:104F1000892BA1F3DACFFA01AA27283051F12031E9
:104F200081F1E8946F936E7F6E5F7F4F8F4F9F4F3D
:104F3000AF4FB1E03ED0B4E03CD0670F781F891F7F
:104F40009A1FA11D680F791F8A1F911DA11D6A0F4D
:104F5000711D811D911DA11D20D009F468943F9100
:104F60002AE0269F11243019305D3193DEF6CF01FF
:104F70000895462F4770405D4193B3E00FD0C9F7C5
:104F8000F6CF462F4F70405D4A3318F0495D31FD32
:104F90004052419302D0A9F7EACFB4E0A695979585
:104FA000879577956795BA95C9F70097610571055B
:104FB00008959B01AC010A2E0694579547953795A5
:104FC0002795BA95C9F7620F731F841F951FA01DFF
:104FD0000895DC01CB01FC01F999FECF06C0F2BDBA
:104FE000E1BDF89A319600B40D9241505040B8F7A7
:104FF0000895DC01A40FB51F4150504048F0CB018B
:10500000840F951F2E910E940A2841505040D0F7DE
:105010000895262FF999FECF92BD81BDF89A019788
:1050200000B4021639F01FBA20BD0FB6F894FA9AF0
:10503000F99A0FBE0895DB018F939F930E942B284E
:10504000BF91AF91A29F800D911DA39F900DB29F24
:10505000900D112408950E946D28A59F900DB49F76
:10506000900DA49F800D911D112408952F923F92C1
:105070004F925F926F927F928F929F92AF92BF9268
:10508000CF92DF92EF92FF920F931F93CF93DF9314
:10509000CDB7DEB7CA1BDB0B0FB6F894DEBF0FBE71
:1050A000CDBF09942A88398848885F846E847D84BE
:1050B0008C849B84AA84B984C884DF80EE80FD80C0
:1050C0000C811B81AA81B981CE0FD11D0FB6F89436
:1050D000DEBF0FBECDBFED010895A29FB001B39F0B
:1050E000C001A39F700D811D1124911DB29F700DF1
:0C50F000811D1124911D0895F894FFCF3C
:1050FC0000000003000000000B1F000000000D0A60
:08510C00002E003A0020000013
:00000001FF
