:100000000C943E0B0C945B0B0C945B0B0C945B0BF5
:100010000C94D00B0C945B0B0C945B0B0C945B0B53
:100020000C945B0B0C945B0B0C945B0B0C945B0BB8
:100030000C945B0B0C945B0B0C945B0B0C945B0BA8
:100040000C94FA0B0C945B0B0C940D1E0C94321E4A
:100050000C945B0B0C945B0B0C945B0B0C945B0B88
:100060000C945B0B0C945B0B46616E207374616C9B
:100070006C2E2052657374617274696E672E2E2E19
:100080000D0A0050574D2044757479202E2E2E2EC7
:100090002E2E2E2E2E2E2E2E2E2E2E2E2E2E2E2E80
:1000A0002E2E3A20256425250D0A0025750D0A00FF
:1000B000257346616E2025632052504D20202E2E40
:1000C0002E2E2E2E2E2E2E2E2E2E2E2E2E2E2E2E50
:1000D0002E2E3A2000257354656D7020256320284C
:1000E0004329205B25735D2025732E2E3A2025732E
:1000F00025752E25750D0A004E6F2066616E7320E2
:100100006F7220696E73756666696369656E7420C7
:1001100073656E736F72732070726573656E740DA4
:100120000A00496E73756666696369656E74206E50
:10013000756D626572206F66206F7065726174699B
:100140006F6E616C2073656E736F72732E205365D2
:100150007474696E6720746F206D61780D0A004EAB
:100160006F7468696E6720746F20646F0D0A000DEC
:100170000A4374726C2B442072656365697665640A
:100180002E20526573657474696E672E2E2E0D0ACB
:10019000005072657373204374726C2B4420617439
:1001A00020616E792074696D6520746F20726573AB
:1001B00065740D0A005573696E67202575206F669A
:1001C000202575206D6178696D756D2066616E738F
:1001D0000D0A004E6F2073656E736F727320666F29
:1001E000756E642E2046616E732077696C6C206298
:1001F000652073657420746F206D61780D0A000DA1
:100200000A4861726477617265206572726F72204C
:10021000736561726368696E6720666F72207365CB
:100220006E736F72730D0A000D0A466F756E64204F
:100230002575206F66202575206D6178696D756D57
:100240002073656E736F72730D0A000D0A4D616E37
:1002500075616C6C792061737369676E65642025C4
:1002600075206F66202575206D6178696D756D202C
:1002700073656E736F72730D0A000D0A0D0A00200C
:100280002850617274206D61792062656C6F6E67B1
:1002900020746F20612046616D696C79206E6F74E7
:1002A000207365656E20696E20323031392E290049
:1002B0002028436F756C64206E6F74206964656ECE
:1002C000746966792046616D696C792E2900202851
:1002D0004572726F722072656164696E6720736324
:1002E00072617463687061642072656769737465B4
:1002F00072205B435D2E29002046616D696C792078
:10030000432028436C6F6E65292E00292E0020465D
:10031000616D696C7920442028436C6F6E65292CCF
:1003200020756E6B6E6F776E207375627479706571
:100330002028307838423D002046616D696C792074
:1003400044322028436C6F6E6520772F6F207061D8
:100350007261736974696320706F776572292E000A
:100360002046616D696C792044312028436C6F6EA2
:1003700065292E002046616D696C79204431202862
:10038000436C6F6E6520772F6F20706172617369A7
:1003900074696320706F776572292E00292E002002
:1003A00046616D696C7920422028436C6F6E652927
:1003B0002C20756E6B6E6F776E207375627479701A
:1003C000652028307839373D002046616D696C79A9
:1003D0002042322028436C6F6E65292E0020466132
:1003E0006D696C792042312028436C6F6E65292E2F
:1003F00000292E002C20307836383D002046616DD3
:10040000696C7920412C20756E6B6E6F776E20734E
:100410007562747970652028307839333D00202862
:100420004572726F722072656164696E67207363D2
:100430007261746368706164207265676973746562
:1004400072205B415D2E29002046616D696C792028
:1004500041322028436C6F6E65292E002046616D65
:10046000696C79204131202847656E756965204D9A
:100470006178696D292E003A0020284352432045B7
:1004800072726F72290025303258002530325800C0
:100490002020546865206E756D626572206F66203D
:1004A000646576696174696F6E7320697320756E17
:1004B00065787065637465646C7920736D616C6CCC
:1004C0002E0D0A00206170706561727320746F20B8
:1004D000626520636F756E7465726665697420620B
:1004E00061736564206F6E2025752064657669618F
:1004F00074696F6E732E0D0A0020726573706F6ED3
:10050000646564206C696B6520612067656E756940
:1005100065204D6178696D2E0D0A0053656E736F0D
:1005200072004453313853323020636F756E7465F6
:1005300072666569742074657374206E6F742063CD
:100540006F6D706C657465642C206F74686572776C
:100550006973652073656E736F720020202D2D3EC8
:1005600020006E6F74206E65636573736172792EFF
:1005700020536B69707065642E0D0A002E20457241
:10058000726F722E0D0A0020627574206279746594
:100590002036203D203078002054656D70657261F2
:1005A00074757265204C5342203D20307800206FD6
:1005B0006B2E0D0A0020496E636F6E636C75736954
:1005C00076652E20506C65617365206368616E6787
:1005D000652073656E736F722074656D70657261EE
:1005E0007475726520616E64207265706561742E29
:1005F0000D0A002020436865636B696E672062798D
:10060000746520362075706F6E2074656D7065722C
:100610006174757265206368616E67653A200020B9
:100620006F6B2E0D0A002E204572726F722E0D0A0E
:1006300000206E6F2C20676F743A200020203078E5
:1006400034452070726573657276657320726573C8
:1006500065727665642062797465733A2000206F54
:100660006B2E0D0A00292E204572726F722E0D0A14
:10067000002072656A65637465642028657870651A
:10068000637465643A20307837462C20676F743A7B
:1006900020002020307834452061636365707473D6
:1006A00020313220626974207265736F6C757469D1
:1006B0006F6E3A2000206F6B2E0D0A002E204572BF
:1006C000726F722E0D0A00206E6F2C20676F743AC5
:1006D0002000202030783445207072657365727672
:1006E00065732072657365727665642062797465DE
:1006F000733A2000206F6B2E0D0A00292E204572C0
:10070000726F722E0D0A002072656A6563746564EB
:10071000202877616E743A20307833462C20676F3A
:10072000743A20002020307834452061636365707E
:10073000747320313020626974207265736F6C7538
:1007400074696F6E3A2000206F6B2E0D0A00292EFF
:10075000204572726F722E0D0A002C20676F743A5A
:1007600020002063616E6E6F74206D6F646966791E
:1007700020636F6E74656E74206173206578706598
:1007800063746564202877616E743A2000202030FD
:10079000783445206D6F64696669657320616C61AA
:1007A000726D207265676973746572733A200020F8
:1007B0006F6B2E0D0A002073686F756C6420686182
:1007C0007665206265656E20307831302061636324
:1007D0006F7264696E6720746F20646174617368FE
:1007E0006565742E204572726F722E0D0A00293ACB
:1007F000200020205363726174636870616420621A
:1008000079746520372028307800206F6B2E0D0A10
:100810000020756E65787065637465642076616C20
:1008200075652E204572726F722E0D0A00293A20CE
:100830000020205363726174636870616420627980
:10084000746520362028307800206F6B2E0D0A004A
:100850002073686F756C64206861766520626565D9
:100860006E2030784646206163636F7264696E67FC
:1008700020746F206461746173686565742E20450F
:1008800072726F722E0D0A00293A200020205363E5
:1008900072617463687061642062797465203520C8
:1008A00028307800204D6178696D20646566617537
:1008B0006C742076616C7565732E0D0A00206E6F66
:1008C00074204D6178696D2064656661756C742073
:1008D00076616C7565732034422F34362F37462E7F
:1008E0000D0A00293A20002020496E666F206F6EA5
:1008F0006C793A205363726174636870616420623A
:100900007974657320322C332C342028000D0A00B2
:100910002020435243204572726F722E2043686537
:10092000636B20636F6E6E656374696F6E73206FA7
:1009300072207265706C6163652073656E736F728F
:100940002E0D0A0020205363726174636870616425
:100950002052656769737465723A20000D0A003A87
:1009600020524F4D206F6B2E003A20524F4D206485
:100970006F6573206E6F7420666F6C6C6F77206587
:1009800078706563746564207061747465726E203C
:1009900032383A58583A58583A58583A58583A30DB
:1009A000303A30303A4352432E204572726F722EE5
:1009B000002028435243204572726F72202D3E2042
:1009C0004572726F722E29000D0A4E6F20636F6E92
:1009D00066696775726174696F6E20666F756E64A3
:1009E0002E2053657474696E672064656661756C4A
:1009F00074730D0A000D0A436F6D6D616E64733A76
:100A00000D0A0D0A0973686F770D0A090953686F9B
:100A1000772063757272656E7420636F6E666967A6
:100A200075726174696F6E0D0A0D0A0964656661FD
:100A3000756C740D0A09094C6F6164207468652037
:100A400064656661756C7420636F6E666967757244
:100A50006174696F6E0D0A0D0A09736176650D0A7E
:100A60000909536176652063757272656E7420633F
:100A70006F6E66696775726174696F6E0D0A0D0A33
:100A800009657869740D0A090945786974207468E4
:100A90006973206D656E7520616E64207374617278
:100AA000740D0A0D0A096E756D66616E73205B30F8
:100AB00020746F2025755D0D0A0909536574732034
:100AC000746865206E756D626572206F6620666160
:100AD0006E7320636F6E6E65637465640D0A0D0A34
:100AE0000966616E736D6178205B3020746F203110
:100AF00030305D0D0A0909536574732074686520F0
:100B00006D6178696D756D206475747920637963A2
:100B10006C6520666F722066616E730D0A0D0A099E
:100B200066616E736D696E205B3020746F203130AA
:100B3000305D0D0A09095365747320746865206D72
:100B4000696E696D756D2064757479206379636C65
:100B50006520666F722066616E730D0A0D0A096664
:100B6000616E737374617274205B3020746F203116
:100B700030305D0D0A09095365747320746865206F
:100B800064757479206379636C6520746F20757364
:100B900065206265747765656E2072657365742083
:100BA000616E642066697273742063616C63756C36
:100BB0006174696F6E0D0A0909616E64207768655A
:100BC0006E20696E2074686520636F6E6669677554
:100BD000726174696F6E2070726F6D70740D0A0DA2
:100BE0000A0966616E736D696E72706D205B3020EC
:100BF000746F2036353533355D0D0A090953657438
:100C00007320746865207374616C6C2D72657374E5
:100C1000617274207468726573686F6C64205250DE
:100C20004D20666F7220616C6C2066616E730D0AD8
:100C30000D0A0966616E736D696E6F6666205B30C2
:100C4000206F7220315D0D0A090953657420746F9D
:100C50002027312720746F20706F776572206F66B0
:100C6000662066616E2062656C6F77206D696E69C3
:100C70006D756D2074656D700D0A0D0A0909537448
:100C8000616C6C20636865636B696E6720697320B3
:100C90006E6F7420706572666F726D656420776820
:100CA000656E2073657420746F202731270D0A0D3F
:100CB0000A096D696E74656D7073205B3020746F06
:100CC00020345D0D0A09095365747320746865202A
:100CD0006E756D626572206F6620657870656374ED
:100CE00065642074656D70657261747572652073DA
:100CF000656E736F72730D0A0D0A0974656D706D00
:100D00006178205B2D35352E3020746F20313235DF
:100D10002E305D0D0A0909536574732074686520CF
:100D200074656D7065726174757265206174207789
:100D3000686963682066616E20697320736574203A
:100D4000746F20746865206D6178696D756D0D0A2A
:100D50000909636F6E6669677572656420647574EE
:100D600079206379636C650D0A0D0A0974656D70ED
:100D70006D696E205B2D35352E3020746F20313239
:100D8000352E305D0D0A090953657473207468654A
:100D90002074656D70657261747572652074687217
:100DA0006573686F6C64206174207768696368207C
:100DB00066616E2073746172747320746F0D0A091A
:100DC00009696E6372656173652066726F6D207468
:100DD0006865206D696E696D756D20636F6E6669FB
:100DE00067757265642064757479206379636C65D6
:100DF0000D0A0D0A0974656D7068797374205B3093
:100E000020746F203138302E305D0D0A090953658A
:100E10007473206879737465726573697320776879
:100E2000656E207573696E6720276D696E6F6666E3
:100E3000272E205468652066616E2077696C6C20CF
:100E40006E6F7420737769746368206F66660D0A2D
:100E50000909756E74696C2063757272656E742011
:100E600074656D70206973206C657373207468619C
:100E70006E2074656D70316D696E2C206D696E75B4
:100E8000732074656D7031687973740D0A0D0A09E9
:100E900074656D703164657363205B646573635D55
:100EA0000D0A0974656D703264657363205B646557
:100EB00073635D0D0A0974656D7033646573632037
:100EC0005B646573635D0D0A0974656D70346465F8
:100ED0007363205B646573635D0D0A090953657470
:100EE00073206465736372697074696F6E73202810
:100EF0003135206368617273206D6178290D0A0DA8
:100F00000A097265616474656D700D0A0909507291
:100F10006F626520616E642072656164206F757414
:100F200020616C6C20617474616368656420736512
:100F30006E736F72730D0A0D0A09617574686368C8
:100F400065636B0D0A0909436865636B20617574FD
:100F500068656E746963697479206F662061747462
:100F600061636865642044533138423230207365D0
:100F70006E736F72730D0A0D0A096D616E75616C87
:100F800061737369676E6D656E74205B30206F727C
:100F900020315D0D0A090953657420746F202731D3
:100FA0002720746F20656E61626C65206D616E75BF
:100FB000616C2061737369676E6D656E74206F6616
:100FC0002073656E736F7220616464726573732D34
:100FD000746F2D696E6465780D0A0D0A0973656E6C
:100FE000736F723161646472205B61646472206F3C
:100FF0007220276E6F6E65275D0D0A0973656E732B
:101000006F723261646472205B61646472206F721B
:1010100020276E6F6E65275D0D0A0973656E736F0D
:10102000723361646472205B61646472206F722049
:10103000276E6F6E65275D0D0A0973656E736F729B
:101040003461646472205B61646472206F72202773
:101050006E6F6E65275D0D0A090953657473206113
:101060006464726573736573206F662073656E7355
:101070006F72730D0A0D0A000D0A000D0A43757296
:1010800072656E7420636F6E6669677572617469EC
:101090006F6E3A0D0A0D0A096E756D66616E7320EA
:1010A0002E2E2E2E2E2E2E2E2E2E2E3A2025750D45
:1010B0000A0966616E736D6178202E2E2E2E2E2EFB
:1010C0002E2E2E2E2E3A2025750D0A0966616E737E
:1010D0006D696E202E2E2E2E2E2E2E2E2E2E2E3A78
:1010E0002025750D0A0966616E7373746172742030
:1010F0002E2E2E2E2E2E2E2E2E3A2025750D0A093E
:1011000066616E736D696E72706D202E2E2E2E2E9E
:101110002E2E2E3A2025750D0A0966616E736D69B3
:101120006E6F6666202E2E2E2E2E2E2E2E3A202507
:10113000750D0A0D0A096D696E74656D7073202E48
:101140002E2E2E2E2E2E2E2E2E3A2025750D0A09ED
:1011500074656D706D6178202E2E2E2E2E2E2E2E03
:101160002E2E2E3A20257325752E25750D0A09740D
:10117000656D706D696E202E2E2E2E2E2E2E2E2E2B
:101180002E2E3A20257325752E25750D0A097465B6
:101190006D7068797374202E2E2E2E2E2E2E2E2EEC
:1011A0002E3A2025752E25750D0A0974656D70314E
:1011B00064657363202E2E2E2E2E2E2E2E2E3A2078
:1011C00025730D0A0974656D703264657363202E92
:1011D0002E2E2E2E2E2E2E2E3A2025730D0A097419
:1011E000656D703364657363202E2E2E2E2E2E2E89
:1011F0002E2E3A2025730D0A0974656D70346465CE
:101200007363202E2E2E2E2E2E2E2E2E3A20257358
:101210000D0A0D0A096D616E75616C617373696702
:101220006E6D656E74202E2E3A2025750D0A097399
:10123000656E736F723161646472202E2E2E2E2EB5
:101240002E2E3A20253032583A253032583A253061
:1012500032583A253032583A253032583A25303211
:10126000583A253032583A253032580D0A097365FC
:101270006E736F723261646472202E2E2E2E2E2EAB
:101280002E3A20253032583A253032583A2530321D
:10129000583A253032583A253032583A25303258AB
:1012A0003A253032583A253032580D0A0973656EA6
:1012B000736F723361646472202E2E2E2E2E2E2EAA
:1012C0003A20253032583A253032583A25303258B3
:1012D0003A253032583A253032583A253032583A89
:1012E000253032583A253032580D0A0973656E732D
:1012F0006F723461646472202E2E2E2E2E2E2E3AA2
:1013000020253032583A253032583A253032583A72
:10131000253032583A253032583A253032583A255D
:101320003032583A253032580D0A000D0A00536504
:10133000652068747470733A2F2F676974687562DA
:101340002E636F6D2F63706574726963682F636FAE
:10135000756E746572666569745F445331384232E4
:101360003020666F72206D6F726520696E666F72D5
:101370006D6174696F6E2E0D0A000D0A486172640A
:1013800077617265206572726F7220736561726336
:1013900068696E6720666F722073656E736F727313
:1013A0000D0A000D0A466F756E64202575206F6664
:1013B000202575206D6178696D756D2073656E737C
:1013C0006F72730D0A0D0A000D0A004661696C65A3
:1013D0006420746F20726561642073656E736F7230
:1013E0002025750D0A000D0A53656E736F72202556
:1013F000753A0D0A0954656D7020284329202E2E58
:101400002E2E2E2E2E2E2E2E2E2E2E3A20257325CB
:10141000752E25750D0A094275726E656420696E18
:10142000204944202E2E2E2E2E2E2E2E2E3A2025D2
:101430003032583A253032583A253032583A253031
:1014400032583A253032583A253032583A2530321F
:10145000583A253032580D0A000D0A4861726477F7
:10146000617265206572726F722073656172636864
:10147000696E6720666F722073656E736F72730D8D
:101480000A000D0A466F756E64202575206F662070
:101490002575206D6178696D756D2073656E736F4C
:1014A00072730D0A006E6F6E65004572726F723A4C
:1014B000204D697373696E6720706172616D657428
:1014C00065720D0A004572726F723A206E6F20735A
:1014D00075636820636F6D6D616E642028257329C4
:1014E0000D0A003F0068656C700073686F770061DB
:1014F000757468636865636B007265616474656DBB
:1015000070000D0A5374617274696E672E2E2E0D71
:101510000A0065786974000D0A44656661756C742B
:1015200020636F6E66696775726174696F6E206C97
:101530006F616465642E0D0A0D0A0064656661754D
:101540006C74000D0A436F6E666967757261746929
:101550006F6E2073617665642E0D0A0D0A0073614B
:1015600076650073656E736F7234616464720073C4
:10157000656E736F7233616464720073656E736F4E
:101580007232616464720073656E736F723161648C
:101590006472006D616E75616C61737369676E6D05
:1015A000656E740074656D70326465736300746594
:1015B0006D7031646573630066616E736D696E6F23
:1015C00066660074656D70687973740074656D701B
:1015D0006D696E0074656D706D6178006D696E7413
:1015E000656D70730066616E736D696E72706D000B
:1015F00066616E7373746172740066616E736D6997
:101600006E0066616E736D6178006E756D66616EF9
:10161000730025635B25644425635B4B00257300E1
:101620002573000D0A004572726F723A20636F6D68
:101630006D616E64206661696C65640D0A000D0A57
:1016400000636F6E6669673E000D0A003C5072656C
:101650007373204374726C2B4320746F20656E7417
:10166000657220636F6E66696775726174696F6E0B
:101670002070726F6D70743E0D0A000011241FBE41
:10168000CFEFD8E0DEBFCDBF11E0A0E0B1E0E2E7F0
:10169000FFE402C005900D92AC31B107D9F724E008
:1016A000ACE1B1E001C01D92A432B207E1F70E94A3
:1016B0005E1F0C94B7270C9400008F929F92AF92FC
:1016C000BF92CF92DF92EF92FF920F931F93CF932F
:1016D000DF9300D0CDB7DEB7F82ECB01E42ED52EA8
:1016E000C22E1A8277FF5AC02DE2298397FF03C0CA
:1016F0009195819591096AE070E00E947C22B62E56
:10170000A72E982E892EEE2DFD2DDF010D900020A5
:10171000E9F7EA1BE05F0E2F10E0A8016EE270E02F
:1017200082EC91E00E942524F801EE53FE4F1082D6
:101730008F2D90E0C19620E131E0CC2011F02EE019
:1017400031E08F929F92AF92BF92AE014F5F5F4F99
:101750005F934F9342EC51E05F934F93DF92EF9290
:101760009F938F933F932F9385ED90E09F938F935B
:101770000E9484240FB6F894DEBF0FBECDBF0F9039
:101780000F90DF91CF911F910F91FF90EF90DF901D
:10179000CF90BF90AF909F908F9008951982A6CF61
:1017A0002F932FB72F938F939F9320913E0122FD6C
:1017B0000BC0329B09C080913F019091400101967E
:1017C0009093400180933F0123FD0BC0339B09C0E0
:1017D0008091410190914201019690934201809342
:1017E000410186B180933E019F918F912F912FBF30
:1017F0002F9118951F920F920FB60F9211242F93CD
:101800003F934F935F936F937F938F939F93AF9388
:10181000BF93EF93FF9380913D018F5F80933D01D4
:10182000883C29F540913F01509140018EE1849F11
:101830009001859F300D1124309344012093430182
:101840001092400110923F0140914101509142019C
:10185000849F9001859F300D112430934601209381
:101860004501109242011092410110923D0188E819
:101870000E94A20CFF91EF91BF91AF919F918F9128
:101880007F916F915F914F913F912F910F900FBE7C
:101890000F901F901895CF93DF93EC016D8180E03E
:1018A0000E94ED1E6D8181E0DF91CF910C94ED1EC1
:1018B0009C01FB01EF5AFF4F48E0DC0101900D92C3
:1018C0004A95E1F7DC011896FB01E75AFF4F48E023
:1018D00001900D924A95E1F7DC015096FB01EF591A
:1018E000FF4F48E001900D924A95E1F7DC015896D0
:1018F000FB01E759FF4F88E001900D928A95E1F7CF
:1019000080E0F9019081992329F08F5F285F3F4F94
:101910008430B9F7089514BC85B5846085BD85B55C
:101920008D7F85BD85B5816085BD0895EEE6F0E0CB
:101930008081816080830895EEE6F0E080818E7F73
:101940008083089586BD08957F928F929F92AF9273
:10195000BF92CF92DF92EF92FF920F931F93CF939C
:10196000DF93CDB7DEB729970FB6F894DEBF0FBE71
:10197000CDBF6C01862E772E7A01022F422F50E0C8
:1019800070E060E0C7010E942524CE0109960E9404
:10199000510D182F811116C010E0812F29960FB616
:1019A000F894DEBF0FBECDBFDF91CF911F910F9195
:1019B000FF90EF90DF90CF90BF90AF909F908F906F
:1019C0007F9008958985882341F3912C8FEF9E01A4
:1019D0002F5F3F4F5901B5010E94BE0D9FEF980F39
:1019E000F5019D3F08F58D3FB9F22981A82DB72D4E
:1019F00090E0091781F33D91231314C097FDEBCFBD
:101A00002981A82DB72D90E0091729F03D912313C6
:101A10000EC097FF0EC0882309F4BFCF94E099123F
:101A2000DACFBBCF9F5FE5CF8E3F50F3B6CF9F5F3E
:101A3000EBCFD701A90FB11D97FDBA959C919F5F80
:101A40009C9338E0939ED0011124AC0DBD1D98E00D
:101A500001900D929A95E1F79394DDCF9FB7F8949A
:101A60004198399A28E02A95F1F70000882311F06F
:101A70003998419A25E32A95F1F70000319B80E0DF
:101A800020EB2A95F1F70000419A399897FF01C0A1
:101A9000789492E59A95F1F7089586B186958170CC
:101AA0000895FC014198399A81EE92E00197F1F78F
:101AB0000000A1EEB2E01197F1F700009FB7F89493
:101AC0003998419AA4ECB0E01197F1F700C086B1C3
:101AD00097FF01C07894A1EEB2E01197F1F70000F2
:101AE000ACE1B2E01197F1F700C0319B06C08695DA
:101AF000817091E089278083089580E0FCCFCF93A7
:101B0000DF93EC0188810E942E0D91E0811101C0CC
:101B100090E0988381E0DF91CF910895CF93DF9398
:101B2000C82FD8E08C2F81700E942E0DC695811190
:101B3000C068D150B9F78C2FDF91CF9108951F93D2
:101B4000CF93DF939C01162F180F121305C081E06D
:101B5000DF91CF911F910895E9018FEF0E948E0DC3
:101B600089939E01F2CFCF93DF93EC018FEF0E9418
:101B70008E0D888381E0DF91CF910895BF92CF923F
:101B8000DF92EF92FF920F931F93CF93DF930F9209
:101B9000CDB7DEB7C82E7B01CE0101960E94510D54
:101BA000882309F44AC08981882309F446C080EF5C
:101BB0000E948E0DD12C10E498EFB92EB10E81E069
:101BC0000E942E0D082F81E00E942E0D882329F0FF
:101BD000002389F08EEFD82E1FC001110CC01C15F8
:101BE00038F1F7018081982F917080FF04C01C1597
:101BF00011F0092FD12E802F0E942E0DF701908118
:101C00009695011118C0908311501B11D8CFFFEF8A
:101C1000EF1AFF0A1111D0CF8D2D0F90DF91CF91C8
:101C20001F910F91FF90EF90DF90CF90BF9008959C
:101C3000D12E01E0E0CF9068E6CFDD24DA94ECCF3E
:101C4000CF92DF92FF920F931F93CF93DF930F9268
:101C5000CDB7DEB78C01CE0101960E94510DF82E52
:101C60008823A9F0F980FF2091F001151105C9F032
:101C700085E50E948E0D680188E0C80ED11CF80130
:101C800081918F010E948E0D0C151D05C1F78F2DBE
:101C90000F90DF91CF911F910F91FF90DF90CF9028
:101CA00008958CEC0E948E0DF2CF1F93CF93DF939B
:101CB0009C01162F180F121305C081E0DF91CF9100
:101CC0001F910895E90189910E948E0D9E01F3CF25
:101CD000FC0184818F798F31C9F4808196818035B0
:101CE00039F42181253049F49C3039F481E008959C
:101CF0008F3F19F421812730B9F38F7020E130E054
:101D0000281B310981E09217130689F380E00895BA
:101D10001F928F9386E894E09F938F930E94842470
:101D20000F900F900F900F9008950F931F93CF93E4
:101D3000DF9300D00F92CDB7DEB78C016B83CE015D
:101D400001960E94510DC8010E94200E61E0CE0153
:101D500003960E94550E61E0CE0102960E949F0DEF
:101D60008A810F900F900F90DF91CF911F910F916B
:101D700008950F931F93CF93DF9300D0CDB7DEB7B5
:101D80008C01CE0102960E94510DC8010E94200EC6
:101D900084E6898361E0CE0101960E94550E0F9082
:101DA0000F90DF91CF911F910F9108958F929F9285
:101DB000AF92BF92DF92EF92FF920F931F93CF9358
:101DC000DF938B01D42E7C01D0E0C0E08BE8A82EFD
:101DD00084E0B82E4B0181E0881A9108F7018191C7
:101DE0007F011F928F93BF92AF920E9484240F9025
:101DF0000F900F900F908C169D0619F08D2D0E945C
:101E0000EE1D21960C171D0749F7DF91CF911F9109
:101E10000F91FF90EF90DF90BF90AF909F908F90C9
:101E200008950F931F93CF93DF9300D000D00F92AC
:101E3000CDB7DEB78C01CE0105960E94510DC801C9
:101E40000E94200E8EE489838FEA8A838EEF8B8333
:101E50008FE78C8364E0CE0101960E94550ECE017F
:101E600005960E94510DC8010E94200E84E48983CA
:101E700061E0CE0101960E94550E80E293E0EFEF03
:101E8000FBE03197F1F700C000000197C1F70F9018
:101E90000F900F900F900F90DF91CF911F910F91A6
:101EA00008950F931F93CF93DF930F92CDB7DEB7B3
:101EB0008B012EEB29830E94200E811102C080E04D
:101EC00016C061E0CE0101960E94550E8823B9F339
:101ED00069E0C8010E949F0D882389F369E070E0E2
:101EE000C8010E94461F982F81E09111E8CF0F9002
:101EF000DF91CF911F910F910895EF92FF920F9371
:101F00001F93CF93DF9300D00F92CDB7DEB77C0144
:101F1000162F88E090E02FEF00E0000F322F317095
:101F2000030F26950197C9F7CE0103960E94510D24
:101F3000C7010E94200E85E989830A8362E0CE01F1
:101F400001960E94550ECE0103960E94510DC701C5
:101F50000E94200E83E68983110F110F110F1D5F60
:101F60001A8362E0CE0101960E94550E0F900F90E9
:101F70000F90DF91CF911F910F91FF90EF900895F7
:101F80000F931F93CF93DF93CDB7DEB729970FB68B
:101F9000F894DEBF0FBECDBF8B01BE016F5F7F4FD8
:101FA0000E94510F882309F443C029813A8160E0DF
:101FB00037FF04C031952195310961E09D8190760C
:101FC000903209F440C0903409F43FC0911101C02F
:101FD000287FA90174E0569547957A95E1F79AE034
:101FE000949FF001959FF00D11242F703327A0E8E6
:101FF000B2E02A9FA0012B9F500D3A9F500D112453
:10200000611101C05E5F9A01232F33272695269523
:102010002E0F3F1F662319F0319521953109A90133
:102020004A5D5D4F4930574090F4F8013183208379
:1020300029960FB6F894DEBF0FBECDBFDF91CF91CA
:102040001F910F9108952C7FC4CF2E7FC2CF80E0C7
:10205000EFCFCF93DF930F92CDB7DEB724E4298380
:102060000E94200E882329F061E0CE0101960E9493
:10207000550E0F90DF91CF9108957F928F929F928E
:10208000AF92BF92CF92DF92EF92FF920F931F9386
:10209000CF93DF93CDB7DEB7A9970FB6F894DEBF25
:1020A0000FBECDBF7C014AE368E070E00E94D60E0F
:1020B00068E070E0C7010E94461F10E000E088233E
:1020C00051F081EB99E09F938F930E9484240F90AD
:1020D0000F9001E010E0F7018681811107C0858132
:1020E000811104C08081883209F452C00F5F1F4FF4
:1020F00089E699E09F938F930E9484240F900F901C
:102100008CE599E09F938F930E9484246E01FCE1FB
:10211000CF0ED11CB601C7010E94510F0F900F9036
:102120005601811104C0B601C7010E94510F84E419
:1021300099E09F938F930E9484244FE269E070E0BE
:10214000C5010E94D60E69E070E0C5010E94461FDD
:102150000F900F908823F9F080E199E09F938F937F
:102160000E9484240F900F90A9960FB6F894DEBFBA
:102170000FBECDBFDF91CF911F910F91FF90EF90D8
:10218000DF90CF90BF90AF909F908F907F900895F9
:102190008FE599E0AFCF8DE099E09F938F930E94F8
:1021A000842487EE98E09F938F930E9484244FE2CB
:1021B00063E070E0CE014E960E94D60E83EE98E06A
:1021C0009F938F930E9484240F900F900F900F90F5
:1021D0000F900F908E8D8B3439F48F8D863421F4CF
:1021E00088A18F3709F449C08DEB98E09F938F93B6
:1021F0000E9484240F900F908CE898E09F938F9317
:102200000E94842489A10E94880E88E898E09F9308
:102210008F930E9484240F900F900F900F9089A1AC
:102220008F3F71F10F5F1F4F80E598E09F938F9371
:102230000E9484240F900F9081E398E09F938F93E6
:102240000E9484248AA10E94880E8DE298E09F93C8
:102250008F930E9484248AA19FEF980F0F900F9074
:102260000F900F909031B8F49C8D903561F42D8DC6
:10227000253071F48AE098E012C084EA98E0B6CF85
:1022800089E498E0D3CF9F3F19F42D8D273091F347
:10229000890F8F7079F30F5F1F4F81E198E09F9353
:1022A0008F930E9484240F900F9082EF97E09F936A
:1022B0008F930E9484248BA10E94880E8EEE97E05B
:1022C0009F938F930E9484240F900F900F900F90F4
:1022D0008BA1803109F4D6C10F5F1F4F86EB97E0C9
:1022E0009F938F930E9484240F900F904E0129E2B8
:1022F000820E911CC4010E94510DC7010E94200E44
:102300008EE48DA38E8D80958EA38F8D80958FA367
:102310008FE388A76E0185E2C80ED11C64E0C60178
:102320000E94550EBE016D5E7F4FC7010E94510F86
:10233000B82CA92C9C2C8D2C811106C0BE016D5E81
:102340007F4FC7010E94510F8DE897E09F938F93B5
:102350000E9484248E8D80950F900F909D899813F4
:1023600006C08F8D80959E89981709F48EC10F5FE6
:102370001F4F82E697E09F938F930E9484248E8D57
:1023800080950E94880E8FE20E94EE1D8F8D8095B1
:102390000E94880E8AE597E09F938F930E94842481
:1023A0004FE262E070E0CE0145960E94D60E8EE4C8
:1023B00097E09F938F930E9484240F900F900F902B
:1023C0000F900F900F9084E297E09F938F930E945D
:1023D00084240F900F908F898F3309F45FC10F5FB2
:1023E0001F4F87E097E09F938F930E9484248F89EB
:1023F0000E94880E8BEF96E09F938F930E94842417
:102400000F900F900F900F9082ED96E09F938F9317
:102410000E9484240F900F90988D89A1981309C071
:10242000998D8AA1981305C09A8D8BA1981709F4EC
:102430003EC10F5F1F4F87EC96E09F938F930E94E2
:1024400084244FE263E070E0CE0148960E94D60EED
:102450008CEB96E09F938F930E9484240F900F90B3
:102460000F900F908B2D9A2D0E94510DC7010E9445
:10247000200E8EE48DA38E8D8EA38F8D8FA38FE77C
:1024800088A764E0892D982D0E94550EBE01665FD5
:102490007F4FC7010E94510F811106C0BE01665FC8
:1024A0007F4FC7010E94510F82E996E09F938F935F
:1024B0000E9484240F900F908E858F3709F400C1FD
:1024C0000F5F1F4F81E796E09F938F930E948424B4
:1024D0008E850E94880E85E696E09F938F930E94DA
:1024E00084240F900F900F900F908CE396E09F93B1
:1024F0008F930E9484240F900F909F85888D98134E
:1025000009C09889898D981305C099898A8D981773
:1025100009F4DFC00F5F1F4F81E396E09F938F9315
:102520000E9484244FE263E070E0CE010F960E9487
:10253000D60E86E296E09F938F930E9484240F909C
:102540000F900F900F9083EF95E09F938F930E94D1
:1025500084248A850F900F909889803509F0C2C035
:102560002B85253009F0C4C0913108F0C7C086E042
:10257000C82ED12C94E4792E91E0C91AD10809F41F
:10258000D5C08B2D9A2D0E94510DC7010E94200E9F
:102590007DA261E0892D982D0E94550EEFEFFFE19D
:1025A0002CE1E150F0402040E1F700C00000BE0106
:1025B0006F5F7F4FC7010E94510F811106C0BE019E
:1025C0006F5F7F4FC7010E94510F8981803509F0ED
:1025D00098C09A81953081F29F819C3009F099C012
:1025E000845F8F7049F20F5F1F4F88E995E09F93DA
:1025F0008F930E94842489810E94880E87E895E049
:102600009F938F930E9484248F810E94880E8CE771
:1026100095E09F938F930E9484240F900F900F90CA
:102620000F900F900F90FF24F3948BE595E09F930C
:102630008F930E9484240F900F9082E295E0FF20F8
:1026400011F08BE195E09F938F930E9484240F906B
:102650000F9089EF94E00115110509F47FCD1F93C8
:102660000F9384EC94E09F938F930E9484240F90A7
:102670000F900F900F900130110509F075CD80E992
:1026800094E06CCD8FEA97E02BCE87E497E09F93A0
:102690008F930E9484240F900F9095CE84EF96E044
:1026A0009F938F930E9484240F900F90ADCE85EB63
:1026B00096E09F938F930E9484240F900F90D2CE28
:1026C0008EE596E09F938F930E9484240F900F9045
:1026D0000CCF8FE196E09F938F930E9484240F90FC
:1026E0000F9031CF8F3F21F42B85273009F43CCF59
:1026F0009C3021F4845F8F7009F439CF82E695E035
:102700000EC08F3F09F068CF9A81973009F064CFEF
:1027100033CF890F8F7009F066CF8EEA95E09F93D3
:102720008F930E9484240F900F907DCF85EB95E0CE
:102730009F938F930E9484240F900F90F12C75CF5C
:102740007F928F929F92AF92BF92CF92DF92EF9241
:10275000FF920F931F93CF93DF93CDB7DEB76097B0
:102760000FB6F894DEBF0FBECDBF8C014AE368E020
:1027700070E00E94D60E68E070E0C8010E94461F1B
:10278000882341F089E794E09F938F930E948424EB
:102790000F900F9087E794E09F938F930E9484247B
:1027A00068E6C8010E94950E982E63E9C8010E9450
:1027B000950E0F900F909E01265F3F4F59013FEFFE
:1027C000931277C0F12CE12CC8010E94B90E67E981
:1027D000C8010E94950ED82E32E28DED93E0D316FB
:1027E00029F081E3D812F6C189EC93E09F938F938F
:1027F0000E9484240F900F90EFEFEE1AFE0A6BE810
:10280000C8010E94950ED82EF6E084E793E0DF160B
:1028100049F022E080E693E0D21621F0D110F2C117
:1028200088E393E09F938F930E9484240F900F90EE
:102830008FEFE81AF80ACE010E960E94510DC801DA
:102840000E94200E8EE48A878AEA8B8785E58C8732
:102850001D8664E0C5010E94550EBE016F5F7F4F6B
:10286000C8010E94510F811106C0BE016F5F7F4FEA
:10287000C8010E94510FFE0131966F0181918111B3
:1028800014C2EA15FB05D1F78EEC92E09F938F936B
:102890000E9484240F900F90E114F10409F0E3C129
:1028A00080EB92E09F938F930E9484240F900F906F
:1028B000E0C16FE0C8010E947D0FC8010E94110FA6
:1028C000BE016F5F7F4FC8010E94510F811106C08A
:1028D000BE016F5F7F4FC8010E94510F69E070E039
:1028E000CE0101960E94461FF82E8823B9F08EE192
:1028F00094E09F938F930E9484240F900F908DEF0C
:102900009FEF9C01215031092230310518F00196CA
:1029100009F058CFEE24E394F12C56CFCE01019666
:102920000E94680E882309F452C179808A80CE0102
:102930000E960E94510D01151105E1F1C8010E948A
:10294000200E83E98A8761E0C5010E94550E61E08F
:10295000CE0140960E949F0DCE010E960E94510D11
:102960000115110571F1C8010E94200E88E68A87C1
:1029700061E0C5010E94550E61E0CE010F960E94F4
:102980009F0D2F85988948E050E0FF0C892F8170BA
:10299000F80E969541505109C1F7822F877090E04B
:1029A000982F88278F0D911D8F3F934089F090E0DD
:1029B00080E0A7CF8CEC8A8761E0C5010E94550EAC
:1029C000C0CF8CEC8A8761E0C5010E94550ECECF46
:1029D0002695269526952F3051F760E0C8010E9474
:1029E0007D0FC8010E94110FBE016F5F7F4FC801AC
:1029F0000E94510F811106C0BE016F5F7F4FC80159
:102A00000E94510F69E070E0CE0101960E94461FBE
:102A100081116DCFCE0101960E94680E882309F4C2
:102A2000D6C0CA80D12CDC2CCC248981C80ED11C04
:102A30006FE1C8010E947D0FC8010E94110FBE0105
:102A40006F5F7F4FC8010E94510F811106C0BE0108
:102A50006F5F7F4FC8010E94510F69E070E0CE01A7
:102A600001960E94461F811142CFCE0101960E941D
:102A7000680E882309F4ABC0EA80F12CFE2CEE240A
:102A80008981E80EF11C60E1C8010E947D0FC80138
:102A90000E94110FBE016F5F7F4FC8010E94510F4E
:102AA000811106C0BE016F5F7F4FC8010E94510FA8
:102AB00069E070E0CE0101960E94461F811117CF98
:102AC000CE0101960E94680E882309F480C0482D2B
:102AD00050E0542F4427470D511D6A8170E0762F36
:102AE00066278981680F711D3C2D2D2DEC14FD0486
:102AF00014F43E2D2F2D832F922F481759070CF4D5
:102B0000CA01681779070CF4CB01FC2DED2DCE140A
:102B1000DF0414F4FE2DEF2D2F2F3E2F2417350741
:102B20000CF49A01261737070CF49B01461B570B30
:102B3000EC18FD08E416F50634F4B901681B790BAE
:102B400061347140CCF54E155F0594F4281B390BA8
:102B5000215131092F34310558F48CE594E09F93CD
:102B60008F930E9484240F900F9081E090E0C9CE53
:102B70008CEF93E09F938F930E94842463E9C801B4
:102B80000E94950E0E94880E84EF93E09F938F938E
:102B90000E948424892D0E94880E81EF93E09F93E8
:102BA0008F930E9484240F900F900F900F900F909E
:102BB0000F908FEF9FEFA5CE88E494E09F938F93C3
:102BC0000E9484240F900F9082E090E09ACE8EEFC6
:102BD0009FEF97CE9FEFD91609F411CE8FE993E0BE
:102BE0009F938F930E9484248D2D0E94880E8CE9E0
:102BF00093E09F938F930E9484240F900F900F90E7
:102C00000F90FACD3FEFD31609F415CE8EE093E086
:102C10009F938F930E9484248D2D0E94880E8BE0B9
:102C200093E09F938F930E9484240F900F900F90B6
:102C30000F90FECD69E070E0CE0101960E94461F24
:102C4000811122CEDD80C8010E94B90E9D1024CED4
:102C500088EF92E09F938F930E948424FFEFEF1AF6
:102C6000FF0A0F900F908FE792E0EA94EF2809F0A7
:102C700019CE8AE792E09F938F930E9484240F904D
:102C80000F9060960FB6F894DEBF0FBECDBFDF91F8
:102C9000CF911F910F91FF90EF90DF90CF90BF9059
:102CA000AF909F908F907F90089569E070E0CE0183
:102CB00001960E94461F8111E7CD9D80CE010E96A0
:102CC0000E94510DC8010E94200E8EE48A878AEA74
:102CD0008B8785E58C878FEF8D8764E0C5010E9427
:102CE000550EBE016F5F7F4FC8010E94510F8111C9
:102CF00006C0BE016F5F7F4FC8010E94510FF601F1
:102D000081916F01811196CFEA15FB05C1F7BCCD0A
:102D10001F929BE19F931F928F931F929F9382E13B
:102D200096E19F938F930E9484248DB79EB7089657
:102D30000FB6F8949EBF0FBE8DBF0895CF92DF925D
:102D4000EF92FF920F931F93CF93DF936C01162F97
:102D50007A014115510521F0FA018081811112C0DB
:102D60008AEA94E19F938F930E9484240F900F909E
:102D700081E0DF91CF911F910F91FF90EF90DF9055
:102D8000CF900895683009F486C0633008F18D3221
:102D900079F3CA010E94E623143031F4823040F7FF
:102DA000F601808380E0E5CF133019F48536C0F357
:102DB000DFCF153019F4803198F3DACF163019F4DB
:102DC000873070F3D5CF173059F7833048F3D0CF21
:102DD00065E171E0CA010E9420240E94E623EC0113
:102DE000113009F461C08AE01230E1F19E01829F46
:102DF000E001839FD00D112401E060E171E090E0DB
:102E000080E00E942024FC01892BD1F0808188235E
:102E1000B9F0002309F4ACCFDF010D900020E9F7F1
:102E20001197AE1BBF0B129708F0A2CFCF010E94E3
:102E3000E6239C01F70180818D3209F5C21BD30B7B
:102E4000111120C0C33EF4E0DF0714F0C2EED4E05D
:102E5000CA3D2DEFD20714F4CAEDDDEFF601D183A0
:102E6000C083A0CFFE018E9FE0018F9FD00D112463
:102E700001E0F70180818D3209F0BFCF79CFC20F19
:102E8000D31FDECF123051F7C93037E0D30734F308
:102E9000C8E0D7E0E3CF40E150E0B701C6010E94AF
:102EA0004624F60117867ECF00E0E3CFCF93DF9371
:102EB000FC0184E496E49183808381E0828384E64C
:102EC000838384E1848385831782168284EB90E078
:102ED000938782878CE291E0958784871786168690
:102EE00010861186108A10A210AADF01A05CBF4FC5
:102EF0001C9250961C92119688E0ED01982F199221
:102F00009A95E9F71896ED01982F19929A95E9F795
:102F10001896ED01982F19929A95E9F7E759FF4F06
:102F2000DF011D928A95E9F7DF91CF9108950F9304
:102F30001F93CF93DF93EC018B0165EA74E1C80125
:102F40000E940D24892B59F488E0FE0111928A9584
:102F5000E9F780E0DF91CF911F910F91089567E12C
:102F600071E0C8010E942024FC018E01085F1F4F00
:102F70003097B1F08081882399F040E150E070E013
:102F800060E0CF010E94B222699367E171E090E0B6
:102F900080E00E942024FC01C017D10749F7D9CF57
:102FA00081E0D8CF2F923F924F925F926F927F92A3
:102FB0008F929F92AF92BF92CF92DF92EF92FF9249
:102FC0000F931F93CF93DF93CDB7DEB7CD56D109C3
:102FD0000FB6F894DEBF0FBECDBF8C018CE496E136
:102FE0009F938F930E9484240F900F9074E6F72E86
:102FF0000E94A01E811123C08FEF97E70197F1F780
:1030000000C00000FA94F110F3CFC359DF4F0FB6A0
:10301000F894DEBF0FBECDBFDF91CF911F910F910E
:10302000FF90EF90DF90CF90BF90AF909F908F90E8
:103030007F906F905F904F903F902F9008950E94E7
:10304000A91E8330C9F689E496E19F938F930E946D
:1030500084240F900F90A9961FAEA997FE01319678
:103060002F014F013E01F1E66F0E711CAA966FAE63
:10307000AA97272C7E0121E4E20EF11CC801805999
:103080009F4FAC969FAF8EAFAC97D801A159BF4F61
:10309000AE96BFAFAEAFAE97FCC0A4E0A896AFAF00
:1030A000A89706C1E1E0A896EFAFA89701C1F7E0A5
:1030B000A896FFAFA897FCC028E0A8962FAFA897C6
:1030C000F7C088E0A8968FAFA897F2C091E0A896C5
:1030D0009FAFA897EDC0B1E0A896BFAFA897E8C092
:1030E000E3E0E1CFA9961FAEA997E2C0A8969FADF5
:1030F000A897943009F072C0A1E48A1331C080917E
:10310000D402882341F3BB2019F08B2D0E9488162E
:103110008091D302811102C03092D3026091D30218
:1031200061506093D302B0E46B9FB00111246E52E2
:103130007E4FC4010E943F24F20101900020E9F774
:103140003197BE2EB4185F924F92E0E2F6E1FF9302
:10315000EF930E9484240F900F900F900F90B5C0B2
:1031600092E489132BC08091D402882309F49ACF6A
:10317000BB2019F08B2D0E9488168091D30261E04C
:10318000680F8330B9F06093D302A0E46A9FB00166
:1031900011246E527E4FC4010E943F24F20101901F
:1031A0000020E9F73197BE2EB4185F924F92EDE1FF
:1031B000F6E1CDCF1092D30260E0E7CF93E3891719
:1031C00009F475CF8FEC8A0D823008F475CF8CEC42
:1031D0008A0D833008F475CFA1E060CFA896BFAD0B
:1031E000A897B73089F4EEE78E1370CFBB20A1F318
:1031F00088E00E94EE1D80E20E94EE1D88E00E94A1
:10320000EE1DBA94F1E054CFA8962FADA8972830C0
:1032100009F461CF8FE38B150CF059C0BA948B2D54
:103220000B2C000C990BF201E80FF91F1082A82E4D
:10323000BB2011F18091D202843008F495C0109225
:10324000D20252EDC52E51E0D52EB12CB401C601EB
:103250000E942C24B394892B09F08CC024E0B21274
:1032600001C0B12CB092D30283E296E19F938F9379
:103270000E9484240F900F9081E08A0D823008F024
:1032800093C08EE396E19F938F930E9484240F90C6
:103290000F9081E496E19F938F930E9484240F9076
:1032A0000F90B12C91E0A8969FAFA89764E0362EBE
:1032B0000E94F81DA82EA896FFADA897F33009F03C
:1032C00015CF2BE5821709F4E8CE81E0FBCE93E120
:1032D000A91671F3A5E1AA1208C0BB2049F38B2DF2
:1032E0000E9488161982B12CE3CFBBE1AB1609F41A
:1032F000F7CEA996EFADA997EE2339F0FAE0AF1615
:1033000009F4F0CEAA2009F4EDCE23E0A21609F4C8
:1033100048C088E0A81619F09FE7A9120DC0BB208D
:1033200039F288E00E94EE1D80E20E94EE1D88E0E6
:103330000E94EE1DBA94BCCF6201CB0CD11CB7FC2D
:10334000DA94AAE0AA1609F46ACFBDE0AB1639F008
:103350008A2D0E94EE1DF601A082B394A9CFF1E060
:10336000A996FFAFA9975BCF8091D4028F5F80931E
:10337000D40267CF80E4C80ED11C94E0B91266CFA6
:10338000D090D202A0E4DA9EC0011124B4018E5282
:103390009E4F0E943F24D394D092D202D092D30267
:1033A00063CFAA24AA9468CF69E171E0C4010E94A6
:1033B0002024D82EC92E60E171E090E080E00E94C8
:1033C00020245C016AE076E18D2D9C2D0E940D2465
:1033D000892B69F4A50167E0C80102960E949E1638
:1033E00018160CF4BEC38F3F09F0E9C00ECE62E0A0
:1033F00076E18D2D9C2D0E940D24892B29F4A501A9
:1034000063E0C8010396EACF6AEF75E18D2D9C2D2C
:103410000E940D24892B29F4A50163E0C8010496BC
:10342000DDCF60EF75E18D2D9C2D0E940D24892B41
:1034300029F4A50163E0C8010596D0CF65EE75E1DA
:103440008D2D9C2D0E940D24892B29F4A50161E06E
:10345000C8010696C3CF6CED75E18D2D9C2D0E94A1
:103460000D24892B29F4A50166E0C8010996B6CF81
:1034700064ED75E18D2D9C2D0E940D24892B29F47E
:10348000A50160E0C8010C96A9CF6CEC75E18D2D0B
:103490009C2D0E940D24892B29F4A50160E0C80110
:1034A0000A969CCF63EC75E18D2D9C2D0E940D2416
:1034B000892B29F4A50162E0C8010E968FCF68EB35
:1034C00075E18D2D9C2D0E940D24892B29F4A501D9
:1034D00064E0C801089682CF6EEA75E18D2D9C2DBF
:1034E0000E940D24892B29F4A50168E0C8014096AB
:1034F00075CF64EA75E18D2D9C2D0E940D24892BDA
:1035000029F4A50168E0C801809668CF63E975E1F8
:103510008D2D9C2D0E940D24892B31F4A50164E092
:10352000C801805B9F4F5ACF67E875E18D2D9C2DB8
:103530000E940D24892B39F4B501C8018F5A9F4F81
:103540000E9497174DCF6BE775E18D2D9C2D0E9442
:103550000D24892B29F4B501C801875A9F4FF0CF5C
:103560006FE675E18D2D9C2D0E940D24892B29F489
:10357000B501C8018F599F4FE3CF63E675E18D2DEB
:103580009C2D0E940D24892B29F4B501C80187596F
:103590009F4FD6CF6EE575E18D2D9C2D0E940D2499
:1035A000892B89F441E7B80180E00E94FF1D83E484
:1035B00095E19F938F930E9484240F900F90C801F0
:1035C0000E944B0C66CE6BE375E18D2D9C2D0E9405
:1035D0000D24892B31F4C8010E94561787E195E12B
:1035E000E8CF62E175E18D2D9C2D0E940D24892B81
:1035F00049F482E095E19F938F930E9484240F9079
:103600000F9003CD69EF74E18D2D9C2D0E940D2448
:10361000892B09F0BEC088E2A6968FAFA69721E05D
:10362000AE014A595F4FBE016B597F4FC7010E94DF
:10363000A40C8823E9F01F9284E08F93A7968FADA6
:10364000A7971F928F9382E894E19F938F930E9494
:1036500084240F900F900F900F900F900F90A796CB
:103660008FADA797D12C81110CC088EC93E1A1CF2D
:1036700089E594E19F938F930E9484240F900F908B
:10368000EECFA8E0DA9EC00111248E0D9F1D0E948E
:103690002910D394A7968FADA797D81690F3BFEFB4
:1036A000EFE1FCE1B150E040F040E1F700C0000084
:1036B000312CA7968FADA7973816B8F6A32CB12C4E
:1036C00028E0329E60011124BE016D597F4FC70171
:1036D0008C0D9D1D0E94C00F9FEFA91AB90A882367
:1036E00009F44AC0D30111961C921197A5968EAD8C
:1036F0009FADA59797FF3EC0EDE2EC9397FF03C007
:10370000919581959109F701EC0DFD1D27811F927F
:103710002F9326811F922F9325811F922F9324810F
:103720001F922F9323811F922F9322811F922F93F9
:1037300021811F922F9320811F922F936AE070E0C6
:103740000E947C229F938F937F936F932F92AA96D0
:10375000BFADAA97BF93BF92AF92E6EEF3E1FF939E
:10376000EF930E9484240FB6F894DEBF0FBECDBF46
:1037700033949FCF1C92C2CFBF92AF92ABECB3E118
:10378000BF93AF930E9484240F900F900F900F90DF
:10379000EFCF6FEE74E18D2D9C2D0E940D24892BAF
:1037A00009F068C088E2D3018C9321E0AE014D5945
:1037B0005F4FAA966FADAA97722DC7010E94A40C05
:1037C000882309F44EC01F9284E08F93A4968FAD96
:1037D000A4971F928F9383EA93E19F938F930E9404
:1037E00084240F900F900F900F900F900F90A4963D
:1037F0008FADA497882309F431C088E199E20FB610
:10380000F894A895809360000FBE90936000B12C4F
:10381000A895B8E0BB9E60011124CE0CDF1CC60148
:103820000E943D10C6010E94A013B394A4968FADD0
:10383000A497B81668F3A89588E19FE00FB6F894AE
:10384000A895809360000FBE909360008EE293E194
:103850009F938F930E9484240F900F908BE293E1AB
:10386000A8CE8AE793E19F938F930E9484240F90C0
:103870000F90BDCF6AEE74E18D2D9C2D0E940D241A
:10388000892B09F044C1F3011182D8011C962D91B6
:103890003C9137FF37C18DE28083D70111961C928E
:1038A000D8011A96ED91FC91F7FF2EC18DE2D70158
:1038B0008C93D8011E968D919C91F7FF03C0F195D2
:1038C000E195F10937FF03C03195219531091F9228
:1038D0001F921F921F921F921F921F921F921F9260
:1038E0001F921F921F921F921F92AC96AEADBFAD5A
:1038F000AC974C911F924F93AE96AEADBFADAE97C5
:103900004C911F924F93D801A259BF4F4C911F92D7
:103910004F9311974C911F924F9311974C911F9277
:103920004F9311974C911F924F9311974C911F9267
:103930004F9311974C911F924F931F921F921F927A
:103940001F921F921F921F921F921F921F921F92EF
:103950001F921F921F9211974C911F924F93119794
:103960004C911F924F9311974C911F924F93119727
:103970004C911F924F9311974C911F924F93119717
:103980004C911F924F9311974C911F924F93119707
:103990004C911F924F931F921F921F921F921F9242
:1039A0001F921F921F921F921F921F921F921F928F
:1039B0001F9211974C911F924F9311974C911F9208
:1039C0004F9311974C911F924F9311974C911F92C7
:1039D0004F9311974C911F924F9311974C911F92B7
:1039E0004F9311974C911F924F9311974C911F92A7
:1039F0004F931F921F921F921F921F921F921F920E
:103A00001F921F921F921F921F921F921F92119737
:103A10004C911F924F9311974C911F924F93119776
:103A20004C911F924F9311974C911F924F93119766
:103A30004C911F924F9311974C911F924F93119756
:103A40004C911F924F9311974C911F924F93119746
:103A50004C911F924F93A801405C5F4F5F934F932F
:103A6000405151095F934F93405151095F934F93D8
:103A7000405151095F934F934AE0C42ED12CB601B7
:103A80000E9468229F938F937F936F93CF01B6011B
:103A90000E947C229F938F937F936F93FF92EF926C
:103AA000C901B6010E947C229F938F937F936F93ED
:103AB0002F92AA96BFADAA97BF93F80181851F9256
:103AC0008F9380851F928F9387818F9386818F93A9
:103AD00085811F928F9384811F928F9383811F9280
:103AE0008F9382811F928F938BE790E19F938F93A7
:103AF0000E9484240FB6F894DEBF0FBECDBF88E7C6
:103B000090E157CD1082C9CED7011C92D2CE65EE7E
:103B100074E18D2D9C2D0E940D24892B41F063EEC4
:103B200074E18D2D9C2D0E940D24892B71F41F9220
:103B300082E08F9385EF99E09F938F930E94842476
:103B40000F900F900F900F903ACDCF92DF9285ECAF
:103B500094E19F938F930E9484240F900F900F9075
:103B60000F9086E296E125CDCF93DF93EC0141E7FC
:103B7000BC0180E00E94061E8881998184349644AD
:103B800091F088EC99E09F938F930E948424CE015A
:103B90000E9456170F900F9041E7BE0180E0DF9121
:103BA000CF910C94FF1DDF91CF91089588E198E0AB
:103BB0000FB6F894A895809360000FBE90936000B4
:103BC000FFCFCF93C82F0E94D01E8111FCCF8C2F26
:103BD0000E94BB1E90E080E0CF910895CF93C82F44
:103BE0000E94D01E8111FCCF8C2FCF910C94BB1E54
:103BF0000E94A01E81110C94A91EA895F9CF9B01CB
:103C000050E0682F70E0C9010C9434279B0150E00C
:103C1000682F70E0C9010C9424272F932FB72F939E
:103C20008F939F93EF93FF938091C0009091C60074
:103C3000E091D702EF5F2091D6022E1789F08871AC
:103C4000E093D702F0E0E652FD4F90838093D502D7
:103C5000FF91EF919F918F912F912FBF2F911895E9
:103C600080E0F4CF8F938FB78F939F93EF93FF9361
:103C70009091D9028091D802981799F0E091D802DA
:103C8000EF5FEF73E093D802F0E0E652FC4F8081E3
:103C90008093C600FF91EF919F918F918FBF8F917D
:103CA00018958091C1008F7D8093C100F3CF109251
:103CB000D9021092D8021092D7021092D602282F61
:103CC00021709091C20080FF31C090649093C20037
:103CD0009091C20092609093C2009091C200946053
:103CE0009093C2009091C10081FF22C09460909394
:103CF000C100222319F082FF1DC0549A83FF1CC00B
:103D00008091C10080618093C1008091C100806872
:103D10008093C1006093C4007093C5008091C1007E
:103D200088608093C100519A509808959F7BCECFB0
:103D30009B7FDDCF5498E2CF8091C1008F7EE3CF8F
:103D40002091D7029091D60281E0291301C080E032
:103D500008959091D7028091D602981751F0E09182
:103D6000D602EF5FE093D602F0E0E652FD4F80818D
:103D7000089580E008959091D9029F5F9F732091EC
:103D8000D8022917E1F3E92FF0E0E652FC4F8083D7
:103D90009093D9028091C10080628093C100089500
:103DA0009091D9028091D802981309C08091C000E7
:103DB00085FB882780F991E089278170089581E04B
:103DC000FCCF8091D502089582EA8093800089E03B
:103DD00080938100219A229A0895CF93DF9300D097
:103DE00000D00F92CDB7DEB78D83862F90E0B0E084
:103DF000A0E09C01AD0189E0220F331F441F551F35
:103E00008A95D1F729833A834B835C83CA01B90130
:103E100024E630E040E050E00E9490222115310578
:103E2000B1F43D81332371F05C98809180008F7DE7
:103E3000809380000F900F900F900F900F90DF9164
:103E4000CF9108955F98809180008F77F1CF2115F1
:103E500042E0340711F42FEF31E05D81552359F032
:103E60005C9A8091800080628093800030938B0008
:103E700020938A00DFCF5F9A8091800080688093D2
:103E800080003093890020938800D4CFFC01680F14
:103E9000791F80E048E1E617F70709F408952191BA
:103EA00098E0382F3227532F517030FD84278695A4
:103EB0005111806826959150A1F7EDCFCDB7DEB7AF
:103EC00028970FB6F894DEBF0FBECDBF88E19FE004
:103ED0000FB6F894A895809360000FBE9093600091
:103EE000A89578943A983B98579A549A2098559860
:103EF00056983898539852988091680082608093C1
:103F0000680080916C00846080936C0080916C00EC
:103F1000886080936C0086B180933E010E948B0C78
:103F20006FE470E088E10E94571E80E091E090937A
:103F30001F0480931E0481E591E00E94B41D0E943D
:103F4000E41E81E591E00E944B0C81E591E00E9426
:103F5000D21710923D0185B180933E011092480125
:103F600010924A011092490110924C0110924B019B
:103F700010924E0110924D011092500110924F017B
:103F80001092400110923F0110924401109243019F
:103F90001092420110924101109246011092450187
:103FA00081E0809347018091A101882309F419C120
:103FB00061E571E08CE191E00E94580C80933C0136
:103FC0001F9294E09F931F928F938BE492E09F93B4
:103FD0008F930E9484240F900F900F900F900F905A
:103FE0000F9080913C01811108C083ED91E09F9377
:103FF0008F930E9484240F900F901F9282E08F93E2
:10400000809153011F928F9385EB91E09F938F9343
:104010000E9484240E94960CA89581E991E09F93C8
:104020008F930E9484240FB6F894DEBF0FBECDBFDD
:10403000B12CCE010196EE24E394F12C8B839C836A
:104040002EE031E080E191E02901782EA92E21E8CF
:1040500031E081E991E02D833E838F83988710E0E2
:1040600080913C01181708F4DDC0BFEF2FE78CE109
:10407000B15020408040E1F700C00000812C00E0FA
:1040800010E0912C80913C01981608F4D5C08092E4
:1040900048010E94A01E882391F00E94A91E84302E
:1040A00071F48FE691E09F938F930E9484240F9088
:1040B0000F900E94D01E8111FCCF0E94D61D6090EF
:1040C0003C0161104CC080915301882309F4D7C092
:1040D000B0EB8B2EB0E09B2E8BEAC82E80E0D82E62
:1040E000862D90E0FC01EE0FFF1FE45EFE4F37A02F
:1040F00020A4C196272D3A2D611001C092019F93F3
:104100008F933F932F939F928F920E9484242F929C
:104110003F92DF92CF920E94842463940FB6F8946A
:10412000DEBF0FBECDBF809153016816C8F28091EB
:1041300054011F928F9383E890E09F938F930E9486
:1041400084246091540180E00E94ED1E609154012E
:1041500081E00E94ED1E0F900F900F900F908091C4
:104160003C01882309F420C19701082E02C0220FC8
:10417000331F0A94E2F721503109909148019217B8
:10418000130609F07EC190915A01891708F479C18C
:1041900040915B0150915C0180915D0190915E01C5
:1041A000BC01641B750B2091540130E0E091550176
:1041B000F0E06901CE1ADF0AA0915901AA2309F49F
:1041C00071C0A0915F01B09160014A018A1A9B0AF7
:1041D0000815190508F05CC081E080934701612C47
:1041E00088C088E2898321E04CE351E0BE016F5F23
:1041F0007F4F8CE191E00E94A40C882351F01F9224
:1042000084E08F9380913C011F928F9388E292E02B
:10421000DECE8FEF91E09F938F930E9484240F90C6
:104220000F90DFCEA8E01A9FC0011124845E9E4F3C
:104230000E9429101F5F14CFC92CD12CA8E09A9E90
:10424000C00111246B817C81845E9E4F0E94C00F4F
:10425000882399F089819A81081719070CF48C0139
:10426000F601EE0FFF1FE45EFE4F96A785A7C7017C
:1042700001C0880FCA94EAF7882A939403CF8FE588
:1042800091E09F938F930E9484240F900F9067CFAB
:10429000A0914701AA2331F0041715070CF49FCF12
:1042A00010924701D801041715070CF4DA01A8177A
:1042B000B9070CF4CD01DC01A41BB50BAD01A4E6DC
:1042C000A49FC001A59F900D11240E947C226C9D8B
:1042D000C0016D9D900D7C9D900D112464E670E0F1
:1042E0000E947C22E60FF71FE217F3070CF49F01F0
:1042F000622E312C71E7C72E71E0D72EE1E68E2EAB
:10430000E1E09E2E80913C01381608F498C020E030
:1043100041E151E0B8010E945D0B80915301882377
:1043200009F4D0C0912C30EBC32E30E0D32E0BEA31
:1043300010E0892D90E0FC01EE0FFF1FE45EFE4FC0
:1043400087A030A4C196272D3A2D911001C092016B
:104350009F938F933F932F93DF92CF920E94842459
:104360003F928F921F930F930E94842493940FB6D1
:10437000F894DEBF0FBECDBF809153019816C8F2EE
:104380001F926F9283E890E09F938F930E94842402
:10439000662D80E00E94ED1E662D81E00E94ED1EDC
:1043A0000F900F900F900F9094E09B1508F087C02E
:1043B00020915301222309F488C0809143019091F8
:1043C0004401213041F020914501309146012817E8
:1043D000390708F4C90120915901211171C02091B8
:1043E0005701309158018217930708F069C088E699
:1043F00090E09F938F930E9484246091540180E009
:104400000E94ED1E6091540181E00E94ED1EA8956E
:10441000AFEFBFE328E3A150B0402040E1F700C078
:104420000000A8958FEF9FE3A8E381509040A04043
:10443000E1F700C00000A8950F900F9041C0E32D58
:10444000F0E0B2E04D815E813B1629F0B31588F0B3
:10445000A4013110A60121E0311020E0EE0FFF1F72
:10446000E45EFE4F65A576A5832D0E945D0B339417
:1044700049CF23E040E050E03212EDCF4F81588524
:10448000EACF80915301882399F082E291E09F93D3
:104490008F930E9484246091540180E00E94ED1E5D
:1044A0006091540181E00E94ED1E0F900F907CCF2F
:1044B00088EF90E09F938F930E948424F6CFB3946B
:1044C000A895CDCDB4E0BB15D0F78FEF9FEF83CF8C
:1044D000AA1BBB1B51E107C0AA1FBB1FA617B7072A
:1044E00010F0A61BB70B881F991F5A95A9F7809546
:1044F0009095BC01CD01089597FB072E16F400940A
:1045000007D077FD09D00E94682207FC05D03EF451
:10451000909581959F4F0895709561957F4F08956F
:10452000A1E21A2EAA1BBB1BFD010DC0AA1FBB1FB7
:10453000EE1FFF1FA217B307E407F50720F0A21B29
:10454000B30BE40BF50B661F771F881F991F1A9496
:1045500069F760957095809590959B01AC01BD01C0
:10456000CF010895A6E0B0E0E8EBF2E20C947327E7
:104570008D839E836B017A016115710529F0ED81B0
:10458000FE81DB01ED93FC93E114F10429F0C701F6
:104590000297839708F0E3C0AD80BE8095012F5F3E
:1045A0003F4F3E832D83D5011C91812F90E00E94C7
:1045B0000424892B89F71D3209F07CC0ED81FE812E
:1045C000108195012E5F3F4F3E832D8301E0E11462
:1045D000F10409F4E9C0F0E1EF16F10409F0F1C0CB
:1045E000103371F4AD81BE818C918F7D883509F0D7
:1045F000BBC011961C9111971296BE83AD830260C9
:1046000040E1E42EF12C88248A94982CA82C5FE0B9
:10461000B52E80E019821A821B821C8227010F2C82
:10462000000C66087708E0EDE10FEA3060F09FEBE0
:10463000910FE9EC9A3130F09FE9910F9A3108F02F
:1046400051C0E9EAE10FEE151F040CF04BC08F3F9B
:1046500059F129813A814B815C8182169306A40627
:10466000B506F0F1A301920169817A818B819C8169
:104670000E94562769837A838B839C838E2F90E0D8
:10468000B0E0A0E029813A814B815C81280F391F7D
:104690004A1F5B1F29833A834B835C8328173907A2
:1046A0004A075B07E8F081E0AD81BE811D91BE83C2
:1046B000AD83B9CF1B3239F4AD81BE811C91F501B8
:1046C0003296FE83ED8300E082CF10E338E0E32EE4
:1046D000F12C88248A94982CA82C2FE1B22E99CF03
:1046E0008FEFE2CFC114D10449F0882379F12D81F5
:1046F0003E8121503109F6013183208300FF0FC034
:1047000029813A814B815C81509540953095219566
:104710003F4F4F4F5F4F29833A834B835C838F3FDB
:1047200069F482E290E090932304809322048FEF57
:104730009FEFDC0189839A83AB83BC8369817A8193
:104740008B819C812696E0E10C948F2701FFD6CFC8
:10475000ED81FE813297D601ED93FC93CFCF198284
:104760001A821B821C82EACFE114F10409F4ADCF56
:1047700010E3BAE0EB16F104E9F0E0E1EE16F10423
:1047800009F43ECFF8E0EF16F10409F4A2CF6FEF81
:104790007FEFCB0197010F2C000C440B550B0E94AF
:1047A000902249015A0135CF103309F41BCF8AE01A
:1047B000E82EF12C99E9892E982CA82C99E1B92E94
:1047C00028CF9AE0E916F104E9F6F4CFFC01882736
:1047D0009927E89421912032E9F3293010F02E3006
:1047E000C8F32B3241F02D3239F4689404C00E9492
:1047F0007C24820F911D219120532A30C0F31EF496
:10480000909581959F4F089591110C947D2680324B
:1048100019F089508550C8F70895FB01DC018D918E
:1048200081341CF08B350CF4805E659161341CF092
:104830006B350CF4605E861B611189F3990B08954A
:104840004AE154E00E9455240895DC0101C06D93B3
:1048500041505040E0F70895FB01DC018D91813417
:104860001CF08B350CF4805E619161341CF06B356B
:104870000CF4605E861B611189F3990B0895FB01AE
:10488000DC0101900D920020E1F70895FB01DC01AD
:104890004150504048F001900D920020C9F701C0EE
:1048A0001D9241505040E0F70895FA01A191B08166
:1048B000009719F41097E1F0CD01DC01CD010D90C6
:1048C000002011F4C00113C0FB012191222319F033
:1048D0002015D9F7F3CFFB012191201519F41E9271
:1048E000119606C02223C1F70D900020A1F7D00138
:1048F000FA01A193B08308957AE0979F902D879F46
:10490000802D910D11240895B0E0A0E0EAE8F4E2D2
:104910000C947F27FE013796619171910CE114E0B0
:10492000D80112968D919C91DC0113962C911397CE
:10493000286013962C93AF010E94AA249C01D801F1
:104940001296ED91FC919381977F9383C901E4E0E6
:104950000C949B27AFE0B0E0E0EBF4E20C947127FD
:104960007C013B018A01DC0117961C921E9216976E
:1049700013968C9181FFBEC19AE0292EFE013196DB
:104980004F01D70113969C91F30193FD859193FFFD
:1049900081913F01882309F444C1853239F493FDA4
:1049A000859193FF81913F01853229F4B70190E011
:1049B0000E949626E6CFB12C412C512CBFE1B515B3
:1049C00038F08B3209F188F4803201F1833221F121
:1049D00057FC3AC020ED280F2A3040F556FE1FC084
:1049E000B29C200D1124B22E06C08D3291F080337E
:1049F00079F7689450F8F30193FD859193FF8191C5
:104A00003F018111DBCF20C0689451F8689452F8BF
:104A1000F2CF689453F8EFCF689454F8ECCF429CEF
:104A2000200D1124422E689455F8E5CF8E3229F4DA
:104A300056FCF7C0689456F8DECF8C3619F46894AB
:104A400057F8D9CF8836B9F2982F9F7D9554933077
:104A5000C0F08336A1F18337C1F1833509F05BC023
:104A6000D801CD90DD908D016B2D70E056FC02C019
:104A70006FEF7FEFC6010E9480265C01689457F8B3
:104A80000AC00C5F1F4FEFE3E983AA24A394B12C63
:104A90006401E89457F853FC04C04A141B0409F05D
:104AA00018F5342CA114B10431F5332009F469CF81
:104AB000B70180E290E00E9496263A94F6CFD801A2
:104AC0008C9189830E5F1F4FE0CFF801C190D19088
:104AD0008F016B2D70E056FC02C06FEF7FEFC601B7
:104AE0000E948B265C01D5CFB70180E290E00E9446
:104AF00096264A94D2CFF60157FC859157FE8191B4
:104B00006F01B70190E00E94962631103A94B1E00F
:104B1000AB1AB108C7CF843619F0893609F071C0D5
:104B2000F80157FE67C061917191819191918F0158
:104B3000E52DEF76DE2E97FF09C090958095709554
:104B400061957F4F8F4F9F4F6894D7F82AE030E0F0
:104B5000A4010E94C626C82EC818AC2C5D2CD6FE17
:104B60000CC0E89450F8CB1440F4D4FE05C0D2FC3D
:104B700003C05D2D5E7E552EAB2C54FE93C0FE010E
:104B8000EC0DF11D8081803309F085C0652D697EB3
:104B9000562E752D7870372E53FC93C050FE8DC065
:104BA000BC2CA41410F4B40CBA1854FE90C0B70175
:104BB00080E390E00E94962652FE07C088E751FCF1
:104BC00088E590E0B7010E949626CB1408F48BC0CC
:104BD000CA94D12C8FEFC81AD80AC80CD91CD60198
:104BE0008E916D01B70190E00E9496268C149D0471
:104BF000B1F75BCF61917191072E000C880B990B77
:104C000096CFD52CE894D4F82AE0853729F1F52DF4
:104C1000F97FDF2E8037A1F058F48835A1F08F3668
:104C2000D1F0F701868197812F96E2E10C948D27D0
:104C30008837B9F7D4FE02C06894D2F820E10CC0DE
:104C40006894D4F8F7CF54FE03C02F2F2660D22EDD
:104C500020E132E002C028E030E0F801D7FE15C0C4
:104C600041915191619171914C875D876E877F87EA
:104C70008F01A4016C857D858E859F850E94C62647
:104C8000C82EC818E894D7F868CF81919191AC01EB
:104C900070E060E0E9CF52FC02C0A3947ACFA39405
:104CA000A39477CF852D867809F473CFF6CFB7011B
:104CB00080E290E00E949626A394A414C0F3312CC5
:104CC00074CF342C3A18A41408F46FCFF8CF852D84
:104CD000867809F47ACF8BE251FE80E257FC8DE2B0
:104CE000B70190E070CFB70180E390E00E94962674
:104CF000BA946BCF8FEF9FEF97CF992788270895AE
:104D0000FC010590615070400110D8F78095909596
:104D10008E0F9F1F0895FC0161507040019001109B
:104D2000D8F7809590958E0F9F1F08950F931F932E
:104D3000CF93DF93182F092FEB018B8181FD09C0E1
:104D40001FEF0FEF812F902FDF91CF911F910F91C8
:104D5000089582FF14C02E813F818C819D81281788
:104D600039073CF4E881F981CF0101969983888362
:104D700010838E819F8101969F838E83E3CFE88588
:104D8000F985812F0995892BA1F3DACFFA01AA279A
:104D9000283051F1203181F1E8946F936E7F6E5F7E
:104DA0007F4F8F4F9F4FAF4FB1E03ED0B4E03CD02C
:104DB000670F781F891F9A1FA11D680F791F8A1F0F
:104DC000911DA11D6A0F711D811D911DA11D20D076
:104DD00009F468943F912AE0269F11243019305D30
:104DE0003193DEF6CF010895462F4770405D419321
:104DF000B3E00FD0C9F7F6CF462F4F70405D4A336E
:104E000018F0495D31FD4052419302D0A9F7EACF35
:104E1000B4E0A6959795879577956795BA95C9F764
:104E200000976105710508959B01AC010A2E069457
:104E30005795479537952795BA95C9F7620F731F10
:104E4000841F951FA01D0895DC01CB01FC01F99979
:104E5000FECF06C0F2BDE1BDF89A319600B40D92C6
:104E600041505040B8F70895DC01A40FB51F4150E0
:104E7000504048F0CB01840F951F2E910E9445278A
:104E800041505040D0F70895262FF999FECF92BD9A
:104E900081BDF89A019700B4021639F01FBA20BDFF
:104EA0000FB6F894FA9AF99A0FBE0895DB018F9322
:104EB0009F930E946627BF91AF91A29F800D911D85
:104EC000A39F900DB29F900D112408950E94A827D2
:104ED000A59F900DB49F900DA49F800D911D11244E
:104EE00008952F923F924F925F926F927F928F928E
:104EF0009F92AF92BF92CF92DF92EF92FF920F9369
:104F00001F93CF93DF93CDB7DEB7CA1BDB0B0FB672
:104F1000F894DEBF0FBECDBF09942A88398848882F
:104F20005F846E847D848C849B84AA84B984C884C5
:104F3000DF80EE80FD800C811B81AA81B981CE0FBC
:104F4000D11D0FB6F894DEBF0FBECDBFED010895A1
:104F5000A29FB001B39FC001A39F700D811D1124BA
:104F6000911DB29F700D811D1124911D0895F8941B
:024F7000FFCF71
:104F72000000000300000000E11D000000000D0A17
:0C4F8200006D6178002E003A0020000055
:00000001FF
